{
  "_format": "hh-sol-artifact-1",
  "contractName": "PokerHandVerifier",
  "sourceName": "contracts/PokerHandVerifier.sol",
  "abi": [
    {
      "inputs": [],
      "stateMutability": "nonpayable",
      "type": "constructor"
    },
    {
      "inputs": [
        {
          "internalType": "address",
          "name": "owner",
          "type": "address"
        }
      ],
      "name": "OwnableInvalidOwner",
      "type": "error"
    },
    {
      "inputs": [
        {
          "internalType": "address",
          "name": "account",
          "type": "address"
        }
      ],
      "name": "OwnableUnauthorizedAccount",
      "type": "error"
    },
    {
      "anonymous": false,
      "inputs": [
        {
          "indexed": true,
          "internalType": "string",
          "name": "tableId",
          "type": "string"
        },
        {
          "indexed": true,
          "internalType": "uint256",
          "name": "handNumber",
          "type": "uint256"
        },
        {
          "indexed": false,
          "internalType": "bytes32",
          "name": "commitmentHash",
          "type": "bytes32"
        },
        {
          "indexed": false,
          "internalType": "uint256",
          "name": "vrfRequestId",
          "type": "uint256"
        }
      ],
      "name": "HandCommitted",
      "type": "event"
    },
    {
      "anonymous": false,
      "inputs": [
        {
          "indexed": true,
          "internalType": "string",
          "name": "tableId",
          "type": "string"
        },
        {
          "indexed": true,
          "internalType": "uint256",
          "name": "handNumber",
          "type": "uint256"
        }
      ],
      "name": "HandRevealed",
      "type": "event"
    },
    {
      "anonymous": false,
      "inputs": [
        {
          "indexed": true,
          "internalType": "address",
          "name": "previousOwner",
          "type": "address"
        },
        {
          "indexed": true,
          "internalType": "address",
          "name": "newOwner",
          "type": "address"
        }
      ],
      "name": "OwnershipTransferred",
      "type": "event"
    },
    {
      "inputs": [
        {
          "internalType": "string",
          "name": "tableId",
          "type": "string"
        },
        {
          "internalType": "uint256",
          "name": "handNumber",
          "type": "uint256"
        },
        {
          "internalType": "bytes32",
          "name": "commitmentHash",
          "type": "bytes32"
        },
        {
          "internalType": "uint256",
          "name": "vrfRequestId",
          "type": "uint256"
        }
      ],
      "name": "commitHand",
      "outputs": [],
      "stateMutability": "nonpayable",
      "type": "function"
    },
    {
      "inputs": [
        {
          "internalType": "bytes32",
          "name": "",
          "type": "bytes32"
        }
      ],
      "name": "commitments",
      "outputs": [
        {
          "internalType": "bytes32",
          "name": "commitmentHash",
          "type": "bytes32"
        },
        {
          "internalType": "uint256",
          "name": "vrfRequestId",
          "type": "uint256"
        },
        {
          "internalType": "uint256",
          "name": "commitTimestamp",
          "type": "uint256"
        },
        {
          "internalType": "bool",
          "name": "committed",
          "type": "bool"
        }
      ],
      "stateMutability": "view",
      "type": "function"
    },
    {
      "inputs": [
        {
          "internalType": "string",
          "name": "tableId",
          "type": "string"
        },
        {
          "internalType": "uint256",
          "name": "handNumber",
          "type": "uint256"
        }
      ],
      "name": "getHandData",
      "outputs": [
        {
          "internalType": "string",
          "name": "serverSeed",
          "type": "string"
        },
        {
          "internalType": "string[]",
          "name": "playerSeeds",
          "type": "string[]"
        },
        {
          "internalType": "string",
          "name": "deckOrder",
          "type": "string"
        },
        {
          "internalType": "bytes32",
          "name": "commitHash",
          "type": "bytes32"
        },
        {
          "internalType": "uint256",
          "name": "vrfRequestId",
          "type": "uint256"
        },
        {
          "internalType": "uint256",
          "name": "commitTimestamp",
          "type": "uint256"
        },
        {
          "internalType": "uint256",
          "name": "revealTimestamp",
          "type": "uint256"
        }
      ],
      "stateMutability": "view",
      "type": "function"
    },
    {
      "inputs": [],
      "name": "owner",
      "outputs": [
        {
          "internalType": "address",
          "name": "",
          "type": "address"
        }
      ],
      "stateMutability": "view",
      "type": "function"
    },
    {
      "inputs": [],
      "name": "renounceOwnership",
      "outputs": [],
      "stateMutability": "nonpayable",
      "type": "function"
    },
    {
      "inputs": [
        {
          "internalType": "string",
          "name": "tableId",
          "type": "string"
        },
        {
          "internalType": "uint256",
          "name": "handNumber",
          "type": "uint256"
        },
        {
          "internalType": "string",
          "name": "serverSeed",
          "type": "string"
        },
        {
          "internalType": "string[]",
          "name": "playerSeeds",
          "type": "string[]"
        },
        {
          "internalType": "string",
          "name": "deckOrder",
          "type": "string"
        }
      ],
      "name": "revealHand",
      "outputs": [],
      "stateMutability": "nonpayable",
      "type": "function"
    },
    {
      "inputs": [
        {
          "internalType": "address",
          "name": "newOwner",
          "type": "address"
        }
      ],
      "name": "transferOwnership",
      "outputs": [],
      "stateMutability": "nonpayable",
      "type": "function"
    },
    {
      "inputs": [
        {
          "internalType": "string",
          "name": "tableId",
          "type": "string"
        },
        {
          "internalType": "uint256",
          "name": "handNumber",
          "type": "uint256"
        }
      ],
      "name": "verifyHand",
      "outputs": [
        {
          "internalType": "bool",
          "name": "committed",
          "type": "bool"
        },
        {
          "internalType": "bool",
          "name": "revealed",
          "type": "bool"
        },
        {
          "internalType": "bytes32",
          "name": "commitHash",
          "type": "bytes32"
        },
        {
          "internalType": "uint256",
          "name": "timestamp",
          "type": "uint256"
        }
      ],
      "stateMutability": "view",
      "type": "function"
    }
  ],
  "bytecode": "0x6080604052348015600e575f80fd5b503380603357604051631e4fbdf760e01b81525f600482015260240160405180910390fd5b603a81603f565b50608e565b5f80546001600160a01b038381166001600160a01b0319831681178455604051919092169283917f8be0079c531659141344cd1fd0a4f28419497f9722a3daafe3b4186f6b6457e09190a35050565b610edd8061009b5f395ff3fe608060405234801561000f575f80fd5b5060043610610085575f3560e01c8063839df94511610058578063839df945146101065780638da5cb5b14610160578063d22227651461017a578063f2fde38b1461018d575f80fd5b8063023266571461008957806365288130146100c3578063715018a6146100d857806382c1b358146100e0575b5f80fd5b61009c61009736600461096a565b6101a0565b60408051941515855292151560208501529183015260608201526080015b60405180910390f35b6100d66100d13660046109b1565b6101f3565b005b6100d6610315565b6100f36100ee36600461096a565b610328565b6040516100ba9796959493929190610a33565b61013e610114366004610ad8565b600160208190525f9182526040909120805491810154600282015460039092015490919060ff1684565b60408051948552602085019390935291830152151560608201526080016100ba565b5f546040516001600160a01b0390911681526020016100ba565b6100d6610188366004610aef565b610574565b6100d661019b366004610bf5565b610783565b5f805f805f6101b08888886107c0565b5f908152600160209081526040808320600292839052922060038301546004909101548354929093015460ff918216985092169550935091505093509350935093565b6101fb6107f5565b5f6102078686866107c0565b5f8181526001602052604090206003015490915060ff16156102645760405162461bcd60e51b8152602060048201526011602482015270105b1c9958591e4818dbdb5b5a5d1d1959607a1b60448201526064015b60405180910390fd5b604080516080810182528481526020808201858152428385019081526001606085018181525f888152948290529386902094518555915191840191909155516002830155516003909101805460ff19169115159190911790555184906102cd9088908890610c22565b6040805191829003822086835260208301869052917f8ee4d7db26cd87c0df8ef26bfdecd05773a24f1bd132cdaa1971fb88bb54a0e8910160405180910390a3505050505050565b61031d6107f5565b6103265f610821565b565b60608060605f805f805f61033d8b8b8b6107c0565b5f81815260016020818152604080842060029283905293208354848401548386015460038401548454989950969793968796870195870194879061038090610c31565b80601f01602080910402602001604051908101604052809291908181526020018280546103ac90610c31565b80156103f75780601f106103ce576101008083540402835291602001916103f7565b820191905f5260205f20905b8154815290600101906020018083116103da57829003601f168201915b5050505050965085805480602002602001604051908101604052809291908181526020015f905b828210156104c6578382905f5260205f2001805461043b90610c31565b80601f016020809104026020016040519081016040528092919081815260200182805461046790610c31565b80156104b25780601f10610489576101008083540402835291602001916104b2565b820191905f5260205f20905b81548152906001019060200180831161049557829003601f168201915b50505050508152602001906001019061041e565b5050505095508480546104d890610c31565b80601f016020809104026020016040519081016040528092919081815260200182805461050490610c31565b801561054f5780601f106105265761010080835404028352916020019161054f565b820191905f5260205f20905b81548152906001019060200180831161053257829003601f168201915b5050505050945099509950995099509950995099505050509397509397509397909450565b61057c6107f5565b5f6105888a8a8a6107c0565b5f8181526001602052604090206003015490915060ff166105db5760405162461bcd60e51b815260206004820152600d60248201526c139bdd0818dbdb5b5a5d1d1959609a1b604482015260640161025b565b5f8181526002602052604090206004015460ff161561062f5760405162461bcd60e51b815260206004820152601060248201526f105b1c9958591e481c995d99585b195960821b604482015260640161025b565b6040518060a0016040528088888080601f0160208091040260200160405190810160405280939291908181526020018383808284375f9201919091525050509082525060200161067f8688610cad565b815260200184848080601f0160208091040260200160405190810160405280939291908181526020018383808284375f9201829052509385525050426020808501919091526001604094850152858352600290525020815181906106e39082610ddb565b5060208281015180516106fc9260018501920190610870565b50604082015160028201906107119082610ddb565b50606082015160038201556080909101516004909101805460ff19169115159190911790556040518890610748908c908c90610c22565b604051908190038120907ff32431476922954785d54d0fb2bfd1a46eb162aef71825fe938d0dab961bd586905f90a350505050505050505050565b61078b6107f5565b6001600160a01b0381166107b457604051631e4fbdf760e01b81525f600482015260240161025b565b6107bd81610821565b50565b5f8383836040516020016107d693929190610e95565b6040516020818303038152906040528051906020012090509392505050565b5f546001600160a01b031633146103265760405163118cdaa760e01b815233600482015260240161025b565b5f80546001600160a01b038381166001600160a01b0319831681178455604051919092169283917f8be0079c531659141344cd1fd0a4f28419497f9722a3daafe3b4186f6b6457e09190a35050565b828054828255905f5260205f209081019282156108b4579160200282015b828111156108b457825182906108a49082610ddb565b509160200191906001019061088e565b506108c09291506108c4565b5090565b808211156108c0575f6108d782826108e0565b506001016108c4565b5080546108ec90610c31565b5f825580601f106108fb575050565b601f0160209004905f5260205f20908101906107bd91905b808211156108c0575f8155600101610913565b5f8083601f840112610936575f80fd5b5081356001600160401b0381111561094c575f80fd5b602083019150836020828501011115610963575f80fd5b9250929050565b5f805f6040848603121561097c575f80fd5b83356001600160401b03811115610991575f80fd5b61099d86828701610926565b909790965060209590950135949350505050565b5f805f805f608086880312156109c5575f80fd5b85356001600160401b038111156109da575f80fd5b6109e688828901610926565b9099909850602088013597604081013597506060013595509350505050565b5f81518084528060208401602086015e5f602082860101526020601f19601f83011685010191505092915050565b60e081525f610a4560e083018a610a05565b828103602084015280895180835260208301915060208160051b84010160208c015f5b83811015610a9a57601f19868403018552610a84838351610a05565b6020958601959093509190910190600101610a68565b50508581036040870152610aae818c610a05565b9450505050508560608301528460808301528360a08301528260c083015298975050505050505050565b5f60208284031215610ae8575f80fd5b5035919050565b5f805f805f805f805f60a08a8c031215610b07575f80fd5b89356001600160401b03811115610b1c575f80fd5b610b288c828d01610926565b909a5098505060208a0135965060408a01356001600160401b03811115610b4d575f80fd5b610b598c828d01610926565b90975095505060608a01356001600160401b03811115610b77575f80fd5b8a01601f81018c13610b87575f80fd5b80356001600160401b03811115610b9c575f80fd5b8c60208260051b8401011115610bb0575f80fd5b6020919091019450925060808a01356001600160401b03811115610bd2575f80fd5b610bde8c828d01610926565b915080935050809150509295985092959850929598565b5f60208284031215610c05575f80fd5b81356001600160a01b0381168114610c1b575f80fd5b9392505050565b818382375f9101908152919050565b600181811c90821680610c4557607f821691505b602082108103610c6357634e487b7160e01b5f52602260045260245ffd5b50919050565b634e487b7160e01b5f52604160045260245ffd5b604051601f8201601f191681016001600160401b0381118282101715610ca557610ca5610c69565b604052919050565b5f6001600160401b03831115610cc557610cc5610c69565b8260051b610cd560208201610c7d565b84815290830190602081019036831115610ced575f80fd5b845b83811015610d855780356001600160401b03811115610d0c575f80fd5b860136601f820112610d1c575f80fd5b80356001600160401b03811115610d3557610d35610c69565b610d48601f8201601f1916602001610c7d565b818152366020838501011115610d5c575f80fd5b816020840160208301375f60208383010152808652505050602083019250602081019050610cef565b5095945050505050565b601f821115610dd657805f5260205f20601f840160051c81016020851015610db45750805b601f840160051c820191505b81811015610dd3575f8155600101610dc0565b50505b505050565b81516001600160401b03811115610df457610df4610c69565b610e0881610e028454610c31565b84610d8f565b6020601f821160018114610e3a575f8315610e235750848201515b5f19600385901b1c1916600184901b178455610dd3565b5f84815260208120601f198516915b82811015610e695787850151825560209485019460019092019101610e49565b5084821015610e8657868401515f19600387901b60f8161c191681555b50505050600190811b01905550565b8284823790910190815260200191905056fea264697066735822122042a0af49df039f7870729acf69d1ae54615c766ef888bb5ee24c6c4c1f093e6664736f6c634300081a0033",
  "linkReferences": {},
  "deployedLinkReferences": {}
}