{"contracts/PokerHandVerifier.sol":{"PokerHandVerifier":{"abi":[{"inputs":[],"stateMutability":"nonpayable","type":"constructor"},{"inputs":[{"internalType":"address","name":"owner","type":"address"}],"name":"OwnableInvalidOwner","type":"error"},{"inputs":[{"internalType":"address","name":"account","type":"address"}],"name":"OwnableUnauthorizedAccount","type":"error"},{"anonymous":false,"inputs":[{"indexed":true,"internalType":"string","name":"tableId","type":"string"},{"indexed":true,"internalType":"uint256","name":"handNumber","type":"uint256"},{"indexed":false,"internalType":"bytes32","name":"commitmentHash","type":"bytes32"},{"indexed":false,"internalType":"uint256","name":"vrfRequestId","type":"uint256"}],"name":"HandCommitted","type":"event"},{"anonymous":false,"inputs":[{"indexed":true,"internalType":"string","name":"tableId","type":"string"},{"indexed":true,"internalType":"uint256","name":"handNumber","type":"uint256"}],"name":"HandRevealed","type":"event"},{"anonymous":false,"inputs":[{"indexed":true,"internalType":"address","name":"previousOwner","type":"address"},{"indexed":true,"internalType":"address","name":"newOwner","type":"address"}],"name":"OwnershipTransferred","type":"event"},{"inputs":[{"internalType":"string","name":"tableId","type":"string"},{"internalType":"uint256","name":"handNumber","type":"uint256"},{"internalType":"bytes32","name":"commitmentHash","type":"bytes32"},{"internalType":"uint256","name":"vrfRequestId","type":"uint256"}],"name":"commitHand","outputs":[],"stateMutability":"nonpayable","type":"function"},{"inputs":[{"internalType":"bytes32","name":"","type":"bytes32"}],"name":"commitments","outputs":[{"internalType":"bytes32","name":"commitmentHash","type":"bytes32"},{"internalType":"uint256","name":"vrfRequestId","type":"uint256"},{"internalType":"uint256","name":"commitTimestamp","type":"uint256"},{"internalType":"bool","name":"committed","type":"bool"}],"stateMutability":"view","type":"function"},{"inputs":[{"internalType":"string","name":"tableId","type":"string"},{"internalType":"uint256","name":"handNumber","type":"uint256"}],"name":"getHandData","outputs":[{"internalType":"string","name":"serverSeed","type":"string"},{"internalType":"string[]","name":"playerSeeds","type":"string[]"},{"internalType":"string","name":"deckOrder","type":"string"},{"internalType":"bytes32","name":"commitHash","type":"bytes32"},{"internalType":"uint256","name":"vrfRequestId","type":"uint256"},{"internalType":"uint256","name":"commitTimestamp","type":"uint256"},{"internalType":"uint256","name":"revealTimestamp","type":"uint256"}],"stateMutability":"view","type":"function"},{"inputs":[],"name":"owner","outputs":[{"internalType":"address","name":"","type":"address"}],"stateMutability":"view","type":"function"},{"inputs":[],"name":"renounceOwnership","outputs":[],"stateMutability":"nonpayable","type":"function"},{"inputs":[{"internalType":"string","name":"tableId","type":"string"},{"internalType":"uint256","name":"handNumber","type":"uint256"},{"internalType":"string","name":"serverSeed","type":"string"},{"internalType":"string[]","name":"playerSeeds","type":"string[]"},{"internalType":"string","name":"deckOrder","type":"string"}],"name":"revealHand","outputs":[],"stateMutability":"nonpayable","type":"function"},{"inputs":[{"internalType":"address","name":"newOwner","type":"address"}],"name":"transferOwnership","outputs":[],"stateMutability":"nonpayable","type":"function"},{"inputs":[{"internalType":"string","name":"tableId","type":"string"},{"internalType":"uint256","name":"handNumber","type":"uint256"}],"name":"verifyHand","outputs":[{"internalType":"bool","name":"committed","type":"bool"},{"internalType":"bool","name":"revealed","type":"bool"},{"internalType":"bytes32","name":"commitHash","type":"bytes32"},{"internalType":"uint256","name":"timestamp","type":"uint256"}],"stateMutability":"view","type":"function"}],"evm":{"bytecode":{"linkReferences":{},"object":"6080604052348015600e575f80fd5b503380603357604051631e4fbdf760e01b81525f600482015260240160405180910390fd5b603a81603f565b50608e565b5f80546001600160a01b038381166001600160a01b0319831681178455604051919092169283917f8be0079c531659141344cd1fd0a4f28419497f9722a3daafe3b4186f6b6457e09190a35050565b610edd8061009b5f395ff3fe608060405234801561000f575f80fd5b5060043610610085575f3560e01c8063839df94511610058578063839df945146101065780638da5cb5b14610160578063d22227651461017a578063f2fde38b1461018d575f80fd5b8063023266571461008957806365288130146100c3578063715018a6146100d857806382c1b358146100e0575b5f80fd5b61009c61009736600461096a565b6101a0565b60408051941515855292151560208501529183015260608201526080015b60405180910390f35b6100d66100d13660046109b1565b6101f3565b005b6100d6610315565b6100f36100ee36600461096a565b610328565b6040516100ba9796959493929190610a33565b61013e610114366004610ad8565b600160208190525f9182526040909120805491810154600282015460039092015490919060ff1684565b60408051948552602085019390935291830152151560608201526080016100ba565b5f546040516001600160a01b0390911681526020016100ba565b6100d6610188366004610aef565b610574565b6100d661019b366004610bf5565b610783565b5f805f805f6101b08888886107c0565b5f908152600160209081526040808320600292839052922060038301546004909101548354929093015460ff918216985092169550935091505093509350935093565b6101fb6107f5565b5f6102078686866107c0565b5f8181526001602052604090206003015490915060ff16156102645760405162461bcd60e51b8152602060048201526011602482015270105b1c9958591e4818dbdb5b5a5d1d1959607a1b60448201526064015b60405180910390fd5b604080516080810182528481526020808201858152428385019081526001606085018181525f888152948290529386902094518555915191840191909155516002830155516003909101805460ff19169115159190911790555184906102cd9088908890610c22565b6040805191829003822086835260208301869052917f8ee4d7db26cd87c0df8ef26bfdecd05773a24f1bd132cdaa1971fb88bb54a0e8910160405180910390a3505050505050565b61031d6107f5565b6103265f610821565b565b60608060605f805f805f61033d8b8b8b6107c0565b5f81815260016020818152604080842060029283905293208354848401548386015460038401548454989950969793968796870195870194879061038090610c31565b80601f01602080910402602001604051908101604052809291908181526020018280546103ac90610c31565b80156103f75780601f106103ce576101008083540402835291602001916103f7565b820191905f5260205f20905b8154815290600101906020018083116103da57829003601f168201915b5050505050965085805480602002602001604051908101604052809291908181526020015f905b828210156104c6578382905f5260205f2001805461043b90610c31565b80601f016020809104026020016040519081016040528092919081815260200182805461046790610c31565b80156104b25780601f10610489576101008083540402835291602001916104b2565b820191905f5260205f20905b81548152906001019060200180831161049557829003601f168201915b50505050508152602001906001019061041e565b5050505095508480546104d890610c31565b80601f016020809104026020016040519081016040528092919081815260200182805461050490610c31565b801561054f5780601f106105265761010080835404028352916020019161054f565b820191905f5260205f20905b81548152906001019060200180831161053257829003601f168201915b5050505050945099509950995099509950995099505050509397509397509397909450565b61057c6107f5565b5f6105888a8a8a6107c0565b5f8181526001602052604090206003015490915060ff166105db5760405162461bcd60e51b815260206004820152600d60248201526c139bdd0818dbdb5b5a5d1d1959609a1b604482015260640161025b565b5f8181526002602052604090206004015460ff161561062f5760405162461bcd60e51b815260206004820152601060248201526f105b1c9958591e481c995d99585b195960821b604482015260640161025b565b6040518060a0016040528088888080601f0160208091040260200160405190810160405280939291908181526020018383808284375f9201919091525050509082525060200161067f8688610cad565b815260200184848080601f0160208091040260200160405190810160405280939291908181526020018383808284375f9201829052509385525050426020808501919091526001604094850152858352600290525020815181906106e39082610ddb565b5060208281015180516106fc9260018501920190610870565b50604082015160028201906107119082610ddb565b50606082015160038201556080909101516004909101805460ff19169115159190911790556040518890610748908c908c90610c22565b604051908190038120907ff32431476922954785d54d0fb2bfd1a46eb162aef71825fe938d0dab961bd586905f90a350505050505050505050565b61078b6107f5565b6001600160a01b0381166107b457604051631e4fbdf760e01b81525f600482015260240161025b565b6107bd81610821565b50565b5f8383836040516020016107d693929190610e95565b6040516020818303038152906040528051906020012090509392505050565b5f546001600160a01b031633146103265760405163118cdaa760e01b815233600482015260240161025b565b5f80546001600160a01b038381166001600160a01b0319831681178455604051919092169283917f8be0079c531659141344cd1fd0a4f28419497f9722a3daafe3b4186f6b6457e09190a35050565b828054828255905f5260205f209081019282156108b4579160200282015b828111156108b457825182906108a49082610ddb565b509160200191906001019061088e565b506108c09291506108c4565b5090565b808211156108c0575f6108d782826108e0565b506001016108c4565b5080546108ec90610c31565b5f825580601f106108fb575050565b601f0160209004905f5260205f20908101906107bd91905b808211156108c0575f8155600101610913565b5f8083601f840112610936575f80fd5b5081356001600160401b0381111561094c575f80fd5b602083019150836020828501011115610963575f80fd5b9250929050565b5f805f6040848603121561097c575f80fd5b83356001600160401b03811115610991575f80fd5b61099d86828701610926565b909790965060209590950135949350505050565b5f805f805f608086880312156109c5575f80fd5b85356001600160401b038111156109da575f80fd5b6109e688828901610926565b9099909850602088013597604081013597506060013595509350505050565b5f81518084528060208401602086015e5f602082860101526020601f19601f83011685010191505092915050565b60e081525f610a4560e083018a610a05565b828103602084015280895180835260208301915060208160051b84010160208c015f5b83811015610a9a57601f19868403018552610a84838351610a05565b6020958601959093509190910190600101610a68565b50508581036040870152610aae818c610a05565b9450505050508560608301528460808301528360a08301528260c083015298975050505050505050565b5f60208284031215610ae8575f80fd5b5035919050565b5f805f805f805f805f60a08a8c031215610b07575f80fd5b89356001600160401b03811115610b1c575f80fd5b610b288c828d01610926565b909a5098505060208a0135965060408a01356001600160401b03811115610b4d575f80fd5b610b598c828d01610926565b90975095505060608a01356001600160401b03811115610b77575f80fd5b8a01601f81018c13610b87575f80fd5b80356001600160401b03811115610b9c575f80fd5b8c60208260051b8401011115610bb0575f80fd5b6020919091019450925060808a01356001600160401b03811115610bd2575f80fd5b610bde8c828d01610926565b915080935050809150509295985092959850929598565b5f60208284031215610c05575f80fd5b81356001600160a01b0381168114610c1b575f80fd5b9392505050565b818382375f9101908152919050565b600181811c90821680610c4557607f821691505b602082108103610c6357634e487b7160e01b5f52602260045260245ffd5b50919050565b634e487b7160e01b5f52604160045260245ffd5b604051601f8201601f191681016001600160401b0381118282101715610ca557610ca5610c69565b604052919050565b5f6001600160401b03831115610cc557610cc5610c69565b8260051b610cd560208201610c7d565b84815290830190602081019036831115610ced575f80fd5b845b83811015610d855780356001600160401b03811115610d0c575f80fd5b860136601f820112610d1c575f80fd5b80356001600160401b03811115610d3557610d35610c69565b610d48601f8201601f1916602001610c7d565b818152366020838501011115610d5c575f80fd5b816020840160208301375f60208383010152808652505050602083019250602081019050610cef565b5095945050505050565b601f821115610dd657805f5260205f20601f840160051c81016020851015610db45750805b601f840160051c820191505b81811015610dd3575f8155600101610dc0565b50505b505050565b81516001600160401b03811115610df457610df4610c69565b610e0881610e028454610c31565b84610d8f565b6020601f821160018114610e3a575f8315610e235750848201515b5f19600385901b1c1916600184901b178455610dd3565b5f84815260208120601f198516915b82811015610e695787850151825560209485019460019092019101610e49565b5084821015610e8657868401515f19600387901b60f8161c191681555b50505050600190811b01905550565b8284823790910190815260200191905056fea264697066735822122042a0af49df039f7870729acf69d1ae54615c766ef888bb5ee24c6c4c1f093e6664736f6c634300081a0033","opcodes":"PUSH1 0x80 PUSH1 0x40 MSTORE CALLVALUE DUP1 ISZERO PUSH1 0xE JUMPI PUSH0 DUP1 REVERT JUMPDEST POP CALLER DUP1 PUSH1 0x33 JUMPI PUSH1 0x40 MLOAD PUSH4 0x1E4FBDF7 PUSH1 0xE0 SHL DUP2 MSTORE PUSH0 PUSH1 0x4 DUP3 ADD MSTORE PUSH1 0x24 ADD PUSH1 0x40 MLOAD DUP1 SWAP2 SUB SWAP1 REVERT JUMPDEST PUSH1 0x3A DUP2 PUSH1 0x3F JUMP JUMPDEST POP PUSH1 0x8E JUMP JUMPDEST PUSH0 DUP1 SLOAD PUSH1 0x1 PUSH1 0x1 PUSH1 0xA0 SHL SUB DUP4 DUP2 AND PUSH1 0x1 PUSH1 0x1 PUSH1 0xA0 SHL SUB NOT DUP4 AND DUP2 OR DUP5 SSTORE PUSH1 0x40 MLOAD SWAP2 SWAP1 SWAP3 AND SWAP3 DUP4 SWAP2 PUSH32 0x8BE0079C531659141344CD1FD0A4F28419497F9722A3DAAFE3B4186F6B6457E0 SWAP2 SWAP1 LOG3 POP POP JUMP JUMPDEST PUSH2 0xEDD DUP1 PUSH2 0x9B PUSH0 CODECOPY PUSH0 RETURN INVALID PUSH1 0x80 PUSH1 0x40 MSTORE CALLVALUE DUP1 ISZERO PUSH2 0xF JUMPI PUSH0 DUP1 REVERT JUMPDEST POP PUSH1 0x4 CALLDATASIZE LT PUSH2 0x85 JUMPI PUSH0 CALLDATALOAD PUSH1 0xE0 SHR DUP1 PUSH4 0x839DF945 GT PUSH2 0x58 JUMPI DUP1 PUSH4 0x839DF945 EQ PUSH2 0x106 JUMPI DUP1 PUSH4 0x8DA5CB5B EQ PUSH2 0x160 JUMPI DUP1 PUSH4 0xD2222765 EQ PUSH2 0x17A JUMPI DUP1 PUSH4 0xF2FDE38B EQ PUSH2 0x18D JUMPI PUSH0 DUP1 REVERT JUMPDEST DUP1 PUSH4 0x2326657 EQ PUSH2 0x89 JUMPI DUP1 PUSH4 0x65288130 EQ PUSH2 0xC3 JUMPI DUP1 PUSH4 0x715018A6 EQ PUSH2 0xD8 JUMPI DUP1 PUSH4 0x82C1B358 EQ PUSH2 0xE0 JUMPI JUMPDEST PUSH0 DUP1 REVERT JUMPDEST PUSH2 0x9C PUSH2 0x97 CALLDATASIZE PUSH1 0x4 PUSH2 0x96A JUMP JUMPDEST PUSH2 0x1A0 JUMP JUMPDEST PUSH1 0x40 DUP1 MLOAD SWAP5 ISZERO ISZERO DUP6 MSTORE SWAP3 ISZERO ISZERO PUSH1 0x20 DUP6 ADD MSTORE SWAP2 DUP4 ADD MSTORE PUSH1 0x60 DUP3 ADD MSTORE PUSH1 0x80 ADD JUMPDEST PUSH1 0x40 MLOAD DUP1 SWAP2 SUB SWAP1 RETURN JUMPDEST PUSH2 0xD6 PUSH2 0xD1 CALLDATASIZE PUSH1 0x4 PUSH2 0x9B1 JUMP JUMPDEST PUSH2 0x1F3 JUMP JUMPDEST STOP JUMPDEST PUSH2 0xD6 PUSH2 0x315 JUMP JUMPDEST PUSH2 0xF3 PUSH2 0xEE CALLDATASIZE PUSH1 0x4 PUSH2 0x96A JUMP JUMPDEST PUSH2 0x328 JUMP JUMPDEST PUSH1 0x40 MLOAD PUSH2 0xBA SWAP8 SWAP7 SWAP6 SWAP5 SWAP4 SWAP3 SWAP2 SWAP1 PUSH2 0xA33 JUMP JUMPDEST PUSH2 0x13E PUSH2 0x114 CALLDATASIZE PUSH1 0x4 PUSH2 0xAD8 JUMP JUMPDEST PUSH1 0x1 PUSH1 0x20 DUP2 SWAP1 MSTORE PUSH0 SWAP2 DUP3 MSTORE PUSH1 0x40 SWAP1 SWAP2 KECCAK256 DUP1 SLOAD SWAP2 DUP2 ADD SLOAD PUSH1 0x2 DUP3 ADD SLOAD PUSH1 0x3 SWAP1 SWAP3 ADD SLOAD SWAP1 SWAP2 SWAP1 PUSH1 0xFF AND DUP5 JUMP JUMPDEST PUSH1 0x40 DUP1 MLOAD SWAP5 DUP6 MSTORE PUSH1 0x20 DUP6 ADD SWAP4 SWAP1 SWAP4 MSTORE SWAP2 DUP4 ADD MSTORE ISZERO ISZERO PUSH1 0x60 DUP3 ADD MSTORE PUSH1 0x80 ADD PUSH2 0xBA JUMP JUMPDEST PUSH0 SLOAD PUSH1 0x40 MLOAD PUSH1 0x1 PUSH1 0x1 PUSH1 0xA0 SHL SUB SWAP1 SWAP2 AND DUP2 MSTORE PUSH1 0x20 ADD PUSH2 0xBA JUMP JUMPDEST PUSH2 0xD6 PUSH2 0x188 CALLDATASIZE PUSH1 0x4 PUSH2 0xAEF JUMP JUMPDEST PUSH2 0x574 JUMP JUMPDEST PUSH2 0xD6 PUSH2 0x19B CALLDATASIZE PUSH1 0x4 PUSH2 0xBF5 JUMP JUMPDEST PUSH2 0x783 JUMP JUMPDEST PUSH0 DUP1 PUSH0 DUP1 PUSH0 PUSH2 0x1B0 DUP9 DUP9 DUP9 PUSH2 0x7C0 JUMP JUMPDEST PUSH0 SWAP1 DUP2 MSTORE PUSH1 0x1 PUSH1 0x20 SWAP1 DUP2 MSTORE PUSH1 0x40 DUP1 DUP4 KECCAK256 PUSH1 0x2 SWAP3 DUP4 SWAP1 MSTORE SWAP3 KECCAK256 PUSH1 0x3 DUP4 ADD SLOAD PUSH1 0x4 SWAP1 SWAP2 ADD SLOAD DUP4 SLOAD SWAP3 SWAP1 SWAP4 ADD SLOAD PUSH1 0xFF SWAP2 DUP3 AND SWAP9 POP SWAP3 AND SWAP6 POP SWAP4 POP SWAP2 POP POP SWAP4 POP SWAP4 POP SWAP4 POP SWAP4 JUMP JUMPDEST PUSH2 0x1FB PUSH2 0x7F5 JUMP JUMPDEST PUSH0 PUSH2 0x207 DUP7 DUP7 DUP7 PUSH2 0x7C0 JUMP JUMPDEST PUSH0 DUP2 DUP2 MSTORE PUSH1 0x1 PUSH1 0x20 MSTORE PUSH1 0x40 SWAP1 KECCAK256 PUSH1 0x3 ADD SLOAD SWAP1 SWAP2 POP PUSH1 0xFF AND ISZERO PUSH2 0x264 JUMPI PUSH1 0x40 MLOAD PUSH3 0x461BCD PUSH1 0xE5 SHL DUP2 MSTORE PUSH1 0x20 PUSH1 0x4 DUP3 ADD MSTORE PUSH1 0x11 PUSH1 0x24 DUP3 ADD MSTORE PUSH17 0x105B1C9958591E4818DBDB5B5A5D1D1959 PUSH1 0x7A SHL PUSH1 0x44 DUP3 ADD MSTORE PUSH1 0x64 ADD JUMPDEST PUSH1 0x40 MLOAD DUP1 SWAP2 SUB SWAP1 REVERT JUMPDEST PUSH1 0x40 DUP1 MLOAD PUSH1 0x80 DUP2 ADD DUP3 MSTORE DUP5 DUP2 MSTORE PUSH1 0x20 DUP1 DUP3 ADD DUP6 DUP2 MSTORE TIMESTAMP DUP4 DUP6 ADD SWAP1 DUP2 MSTORE PUSH1 0x1 PUSH1 0x60 DUP6 ADD DUP2 DUP2 MSTORE PUSH0 DUP9 DUP2 MSTORE SWAP5 DUP3 SWAP1 MSTORE SWAP4 DUP7 SWAP1 KECCAK256 SWAP5 MLOAD DUP6 SSTORE SWAP2 MLOAD SWAP2 DUP5 ADD SWAP2 SWAP1 SWAP2 SSTORE MLOAD PUSH1 0x2 DUP4 ADD SSTORE MLOAD PUSH1 0x3 SWAP1 SWAP2 ADD DUP1 SLOAD PUSH1 0xFF NOT AND SWAP2 ISZERO ISZERO SWAP2 SWAP1 SWAP2 OR SWAP1 SSTORE MLOAD DUP5 SWAP1 PUSH2 0x2CD SWAP1 DUP9 SWAP1 DUP9 SWAP1 PUSH2 0xC22 JUMP JUMPDEST PUSH1 0x40 DUP1 MLOAD SWAP2 DUP3 SWAP1 SUB DUP3 KECCAK256 DUP7 DUP4 MSTORE PUSH1 0x20 DUP4 ADD DUP7 SWAP1 MSTORE SWAP2 PUSH32 0x8EE4D7DB26CD87C0DF8EF26BFDECD05773A24F1BD132CDAA1971FB88BB54A0E8 SWAP2 ADD PUSH1 0x40 MLOAD DUP1 SWAP2 SUB SWAP1 LOG3 POP POP POP POP POP POP JUMP JUMPDEST PUSH2 0x31D PUSH2 0x7F5 JUMP JUMPDEST PUSH2 0x326 PUSH0 PUSH2 0x821 JUMP JUMPDEST JUMP JUMPDEST PUSH1 0x60 DUP1 PUSH1 0x60 PUSH0 DUP1 PUSH0 DUP1 PUSH0 PUSH2 0x33D DUP12 DUP12 DUP12 PUSH2 0x7C0 JUMP JUMPDEST PUSH0 DUP2 DUP2 MSTORE PUSH1 0x1 PUSH1 0x20 DUP2 DUP2 MSTORE PUSH1 0x40 DUP1 DUP5 KECCAK256 PUSH1 0x2 SWAP3 DUP4 SWAP1 MSTORE SWAP4 KECCAK256 DUP4 SLOAD DUP5 DUP5 ADD SLOAD DUP4 DUP7 ADD SLOAD PUSH1 0x3 DUP5 ADD SLOAD DUP5 SLOAD SWAP9 SWAP10 POP SWAP7 SWAP8 SWAP4 SWAP7 DUP8 SWAP7 DUP8 ADD SWAP6 DUP8 ADD SWAP5 DUP8 SWAP1 PUSH2 0x380 SWAP1 PUSH2 0xC31 JUMP JUMPDEST DUP1 PUSH1 0x1F ADD PUSH1 0x20 DUP1 SWAP2 DIV MUL PUSH1 0x20 ADD PUSH1 0x40 MLOAD SWAP1 DUP2 ADD PUSH1 0x40 MSTORE DUP1 SWAP3 SWAP2 SWAP1 DUP2 DUP2 MSTORE PUSH1 0x20 ADD DUP3 DUP1 SLOAD PUSH2 0x3AC SWAP1 PUSH2 0xC31 JUMP JUMPDEST DUP1 ISZERO PUSH2 0x3F7 JUMPI DUP1 PUSH1 0x1F LT PUSH2 0x3CE JUMPI PUSH2 0x100 DUP1 DUP4 SLOAD DIV MUL DUP4 MSTORE SWAP2 PUSH1 0x20 ADD SWAP2 PUSH2 0x3F7 JUMP JUMPDEST DUP3 ADD SWAP2 SWAP1 PUSH0 MSTORE PUSH1 0x20 PUSH0 KECCAK256 SWAP1 JUMPDEST DUP2 SLOAD DUP2 MSTORE SWAP1 PUSH1 0x1 ADD SWAP1 PUSH1 0x20 ADD DUP1 DUP4 GT PUSH2 0x3DA JUMPI DUP3 SWAP1 SUB PUSH1 0x1F AND DUP3 ADD SWAP2 JUMPDEST POP POP POP POP POP SWAP7 POP DUP6 DUP1 SLOAD DUP1 PUSH1 0x20 MUL PUSH1 0x20 ADD PUSH1 0x40 MLOAD SWAP1 DUP2 ADD PUSH1 0x40 MSTORE DUP1 SWAP3 SWAP2 SWAP1 DUP2 DUP2 MSTORE PUSH1 0x20 ADD PUSH0 SWAP1 JUMPDEST DUP3 DUP3 LT ISZERO PUSH2 0x4C6 JUMPI DUP4 DUP3 SWAP1 PUSH0 MSTORE PUSH1 0x20 PUSH0 KECCAK256 ADD DUP1 SLOAD PUSH2 0x43B SWAP1 PUSH2 0xC31 JUMP JUMPDEST DUP1 PUSH1 0x1F ADD PUSH1 0x20 DUP1 SWAP2 DIV MUL PUSH1 0x20 ADD PUSH1 0x40 MLOAD SWAP1 DUP2 ADD PUSH1 0x40 MSTORE DUP1 SWAP3 SWAP2 SWAP1 DUP2 DUP2 MSTORE PUSH1 0x20 ADD DUP3 DUP1 SLOAD PUSH2 0x467 SWAP1 PUSH2 0xC31 JUMP JUMPDEST DUP1 ISZERO PUSH2 0x4B2 JUMPI DUP1 PUSH1 0x1F LT PUSH2 0x489 JUMPI PUSH2 0x100 DUP1 DUP4 SLOAD DIV MUL DUP4 MSTORE SWAP2 PUSH1 0x20 ADD SWAP2 PUSH2 0x4B2 JUMP JUMPDEST DUP3 ADD SWAP2 SWAP1 PUSH0 MSTORE PUSH1 0x20 PUSH0 KECCAK256 SWAP1 JUMPDEST DUP2 SLOAD DUP2 MSTORE SWAP1 PUSH1 0x1 ADD SWAP1 PUSH1 0x20 ADD DUP1 DUP4 GT PUSH2 0x495 JUMPI DUP3 SWAP1 SUB PUSH1 0x1F AND DUP3 ADD SWAP2 JUMPDEST POP POP POP POP POP DUP2 MSTORE PUSH1 0x20 ADD SWAP1 PUSH1 0x1 ADD SWAP1 PUSH2 0x41E JUMP JUMPDEST POP POP POP POP SWAP6 POP DUP5 DUP1 SLOAD PUSH2 0x4D8 SWAP1 PUSH2 0xC31 JUMP JUMPDEST DUP1 PUSH1 0x1F ADD PUSH1 0x20 DUP1 SWAP2 DIV MUL PUSH1 0x20 ADD PUSH1 0x40 MLOAD SWAP1 DUP2 ADD PUSH1 0x40 MSTORE DUP1 SWAP3 SWAP2 SWAP1 DUP2 DUP2 MSTORE PUSH1 0x20 ADD DUP3 DUP1 SLOAD PUSH2 0x504 SWAP1 PUSH2 0xC31 JUMP JUMPDEST DUP1 ISZERO PUSH2 0x54F JUMPI DUP1 PUSH1 0x1F LT PUSH2 0x526 JUMPI PUSH2 0x100 DUP1 DUP4 SLOAD DIV MUL DUP4 MSTORE SWAP2 PUSH1 0x20 ADD SWAP2 PUSH2 0x54F JUMP JUMPDEST DUP3 ADD SWAP2 SWAP1 PUSH0 MSTORE PUSH1 0x20 PUSH0 KECCAK256 SWAP1 JUMPDEST DUP2 SLOAD DUP2 MSTORE SWAP1 PUSH1 0x1 ADD SWAP1 PUSH1 0x20 ADD DUP1 DUP4 GT PUSH2 0x532 JUMPI DUP3 SWAP1 SUB PUSH1 0x1F AND DUP3 ADD SWAP2 JUMPDEST POP POP POP POP POP SWAP5 POP SWAP10 POP SWAP10 POP SWAP10 POP SWAP10 POP SWAP10 POP SWAP10 POP SWAP10 POP POP POP POP SWAP4 SWAP8 POP SWAP4 SWAP8 POP SWAP4 SWAP8 SWAP1 SWAP5 POP JUMP JUMPDEST PUSH2 0x57C PUSH2 0x7F5 JUMP JUMPDEST PUSH0 PUSH2 0x588 DUP11 DUP11 DUP11 PUSH2 0x7C0 JUMP JUMPDEST PUSH0 DUP2 DUP2 MSTORE PUSH1 0x1 PUSH1 0x20 MSTORE PUSH1 0x40 SWAP1 KECCAK256 PUSH1 0x3 ADD SLOAD SWAP1 SWAP2 POP PUSH1 0xFF AND PUSH2 0x5DB JUMPI PUSH1 0x40 MLOAD PUSH3 0x461BCD PUSH1 0xE5 SHL DUP2 MSTORE PUSH1 0x20 PUSH1 0x4 DUP3 ADD MSTORE PUSH1 0xD PUSH1 0x24 DUP3 ADD MSTORE PUSH13 0x139BDD0818DBDB5B5A5D1D1959 PUSH1 0x9A SHL PUSH1 0x44 DUP3 ADD MSTORE PUSH1 0x64 ADD PUSH2 0x25B JUMP JUMPDEST PUSH0 DUP2 DUP2 MSTORE PUSH1 0x2 PUSH1 0x20 MSTORE PUSH1 0x40 SWAP1 KECCAK256 PUSH1 0x4 ADD SLOAD PUSH1 0xFF AND ISZERO PUSH2 0x62F JUMPI PUSH1 0x40 MLOAD PUSH3 0x461BCD PUSH1 0xE5 SHL DUP2 MSTORE PUSH1 0x20 PUSH1 0x4 DUP3 ADD MSTORE PUSH1 0x10 PUSH1 0x24 DUP3 ADD MSTORE PUSH16 0x105B1C9958591E481C995D99585B1959 PUSH1 0x82 SHL PUSH1 0x44 DUP3 ADD MSTORE PUSH1 0x64 ADD PUSH2 0x25B JUMP JUMPDEST PUSH1 0x40 MLOAD DUP1 PUSH1 0xA0 ADD PUSH1 0x40 MSTORE DUP1 DUP9 DUP9 DUP1 DUP1 PUSH1 0x1F ADD PUSH1 0x20 DUP1 SWAP2 DIV MUL PUSH1 0x20 ADD PUSH1 0x40 MLOAD SWAP1 DUP2 ADD PUSH1 0x40 MSTORE DUP1 SWAP4 SWAP3 SWAP2 SWAP1 DUP2 DUP2 MSTORE PUSH1 0x20 ADD DUP4 DUP4 DUP1 DUP3 DUP5 CALLDATACOPY PUSH0 SWAP3 ADD SWAP2 SWAP1 SWAP2 MSTORE POP POP POP SWAP1 DUP3 MSTORE POP PUSH1 0x20 ADD PUSH2 0x67F DUP7 DUP9 PUSH2 0xCAD JUMP JUMPDEST DUP2 MSTORE PUSH1 0x20 ADD DUP5 DUP5 DUP1 DUP1 PUSH1 0x1F ADD PUSH1 0x20 DUP1 SWAP2 DIV MUL PUSH1 0x20 ADD PUSH1 0x40 MLOAD SWAP1 DUP2 ADD PUSH1 0x40 MSTORE DUP1 SWAP4 SWAP3 SWAP2 SWAP1 DUP2 DUP2 MSTORE PUSH1 0x20 ADD DUP4 DUP4 DUP1 DUP3 DUP5 CALLDATACOPY PUSH0 SWAP3 ADD DUP3 SWAP1 MSTORE POP SWAP4 DUP6 MSTORE POP POP TIMESTAMP PUSH1 0x20 DUP1 DUP6 ADD SWAP2 SWAP1 SWAP2 MSTORE PUSH1 0x1 PUSH1 0x40 SWAP5 DUP6 ADD MSTORE DUP6 DUP4 MSTORE PUSH1 0x2 SWAP1 MSTORE POP KECCAK256 DUP2 MLOAD DUP2 SWAP1 PUSH2 0x6E3 SWAP1 DUP3 PUSH2 0xDDB JUMP JUMPDEST POP PUSH1 0x20 DUP3 DUP2 ADD MLOAD DUP1 MLOAD PUSH2 0x6FC SWAP3 PUSH1 0x1 DUP6 ADD SWAP3 ADD SWAP1 PUSH2 0x870 JUMP JUMPDEST POP PUSH1 0x40 DUP3 ADD MLOAD PUSH1 0x2 DUP3 ADD SWAP1 PUSH2 0x711 SWAP1 DUP3 PUSH2 0xDDB JUMP JUMPDEST POP PUSH1 0x60 DUP3 ADD MLOAD PUSH1 0x3 DUP3 ADD SSTORE PUSH1 0x80 SWAP1 SWAP2 ADD MLOAD PUSH1 0x4 SWAP1 SWAP2 ADD DUP1 SLOAD PUSH1 0xFF NOT AND SWAP2 ISZERO ISZERO SWAP2 SWAP1 SWAP2 OR SWAP1 SSTORE PUSH1 0x40 MLOAD DUP9 SWAP1 PUSH2 0x748 SWAP1 DUP13 SWAP1 DUP13 SWAP1 PUSH2 0xC22 JUMP JUMPDEST PUSH1 0x40 MLOAD SWAP1 DUP2 SWAP1 SUB DUP2 KECCAK256 SWAP1 PUSH32 0xF32431476922954785D54D0FB2BFD1A46EB162AEF71825FE938D0DAB961BD586 SWAP1 PUSH0 SWAP1 LOG3 POP POP POP POP POP POP POP POP POP POP JUMP JUMPDEST PUSH2 0x78B PUSH2 0x7F5 JUMP JUMPDEST PUSH1 0x1 PUSH1 0x1 PUSH1 0xA0 SHL SUB DUP2 AND PUSH2 0x7B4 JUMPI PUSH1 0x40 MLOAD PUSH4 0x1E4FBDF7 PUSH1 0xE0 SHL DUP2 MSTORE PUSH0 PUSH1 0x4 DUP3 ADD MSTORE PUSH1 0x24 ADD PUSH2 0x25B JUMP JUMPDEST PUSH2 0x7BD DUP2 PUSH2 0x821 JUMP JUMPDEST POP JUMP JUMPDEST PUSH0 DUP4 DUP4 DUP4 PUSH1 0x40 MLOAD PUSH1 0x20 ADD PUSH2 0x7D6 SWAP4 SWAP3 SWAP2 SWAP1 PUSH2 0xE95 JUMP JUMPDEST PUSH1 0x40 MLOAD PUSH1 0x20 DUP2 DUP4 SUB SUB DUP2 MSTORE SWAP1 PUSH1 0x40 MSTORE DUP1 MLOAD SWAP1 PUSH1 0x20 ADD KECCAK256 SWAP1 POP SWAP4 SWAP3 POP POP POP JUMP JUMPDEST PUSH0 SLOAD PUSH1 0x1 PUSH1 0x1 PUSH1 0xA0 SHL SUB AND CALLER EQ PUSH2 0x326 JUMPI PUSH1 0x40 MLOAD PUSH4 0x118CDAA7 PUSH1 0xE0 SHL DUP2 MSTORE CALLER PUSH1 0x4 DUP3 ADD MSTORE PUSH1 0x24 ADD PUSH2 0x25B JUMP JUMPDEST PUSH0 DUP1 SLOAD PUSH1 0x1 PUSH1 0x1 PUSH1 0xA0 SHL SUB DUP4 DUP2 AND PUSH1 0x1 PUSH1 0x1 PUSH1 0xA0 SHL SUB NOT DUP4 AND DUP2 OR DUP5 SSTORE PUSH1 0x40 MLOAD SWAP2 SWAP1 SWAP3 AND SWAP3 DUP4 SWAP2 PUSH32 0x8BE0079C531659141344CD1FD0A4F28419497F9722A3DAAFE3B4186F6B6457E0 SWAP2 SWAP1 LOG3 POP POP JUMP JUMPDEST DUP3 DUP1 SLOAD DUP3 DUP3 SSTORE SWAP1 PUSH0 MSTORE PUSH1 0x20 PUSH0 KECCAK256 SWAP1 DUP2 ADD SWAP3 DUP3 ISZERO PUSH2 0x8B4 JUMPI SWAP2 PUSH1 0x20 MUL DUP3 ADD JUMPDEST DUP3 DUP2 GT ISZERO PUSH2 0x8B4 JUMPI DUP3 MLOAD DUP3 SWAP1 PUSH2 0x8A4 SWAP1 DUP3 PUSH2 0xDDB JUMP JUMPDEST POP SWAP2 PUSH1 0x20 ADD SWAP2 SWAP1 PUSH1 0x1 ADD SWAP1 PUSH2 0x88E JUMP JUMPDEST POP PUSH2 0x8C0 SWAP3 SWAP2 POP PUSH2 0x8C4 JUMP JUMPDEST POP SWAP1 JUMP JUMPDEST DUP1 DUP3 GT ISZERO PUSH2 0x8C0 JUMPI PUSH0 PUSH2 0x8D7 DUP3 DUP3 PUSH2 0x8E0 JUMP JUMPDEST POP PUSH1 0x1 ADD PUSH2 0x8C4 JUMP JUMPDEST POP DUP1 SLOAD PUSH2 0x8EC SWAP1 PUSH2 0xC31 JUMP JUMPDEST PUSH0 DUP3 SSTORE DUP1 PUSH1 0x1F LT PUSH2 0x8FB JUMPI POP POP JUMP JUMPDEST PUSH1 0x1F ADD PUSH1 0x20 SWAP1 DIV SWAP1 PUSH0 MSTORE PUSH1 0x20 PUSH0 KECCAK256 SWAP1 DUP2 ADD SWAP1 PUSH2 0x7BD SWAP2 SWAP1 JUMPDEST DUP1 DUP3 GT ISZERO PUSH2 0x8C0 JUMPI PUSH0 DUP2 SSTORE PUSH1 0x1 ADD PUSH2 0x913 JUMP JUMPDEST PUSH0 DUP1 DUP4 PUSH1 0x1F DUP5 ADD SLT PUSH2 0x936 JUMPI PUSH0 DUP1 REVERT JUMPDEST POP DUP2 CALLDATALOAD PUSH1 0x1 PUSH1 0x1 PUSH1 0x40 SHL SUB DUP2 GT ISZERO PUSH2 0x94C JUMPI PUSH0 DUP1 REVERT JUMPDEST PUSH1 0x20 DUP4 ADD SWAP2 POP DUP4 PUSH1 0x20 DUP3 DUP6 ADD ADD GT ISZERO PUSH2 0x963 JUMPI PUSH0 DUP1 REVERT JUMPDEST SWAP3 POP SWAP3 SWAP1 POP JUMP JUMPDEST PUSH0 DUP1 PUSH0 PUSH1 0x40 DUP5 DUP7 SUB SLT ISZERO PUSH2 0x97C JUMPI PUSH0 DUP1 REVERT JUMPDEST DUP4 CALLDATALOAD PUSH1 0x1 PUSH1 0x1 PUSH1 0x40 SHL SUB DUP2 GT ISZERO PUSH2 0x991 JUMPI PUSH0 DUP1 REVERT JUMPDEST PUSH2 0x99D DUP7 DUP3 DUP8 ADD PUSH2 0x926 JUMP JUMPDEST SWAP1 SWAP8 SWAP1 SWAP7 POP PUSH1 0x20 SWAP6 SWAP1 SWAP6 ADD CALLDATALOAD SWAP5 SWAP4 POP POP POP POP JUMP JUMPDEST PUSH0 DUP1 PUSH0 DUP1 PUSH0 PUSH1 0x80 DUP7 DUP9 SUB SLT ISZERO PUSH2 0x9C5 JUMPI PUSH0 DUP1 REVERT JUMPDEST DUP6 CALLDATALOAD PUSH1 0x1 PUSH1 0x1 PUSH1 0x40 SHL SUB DUP2 GT ISZERO PUSH2 0x9DA JUMPI PUSH0 DUP1 REVERT JUMPDEST PUSH2 0x9E6 DUP9 DUP3 DUP10 ADD PUSH2 0x926 JUMP JUMPDEST SWAP1 SWAP10 SWAP1 SWAP9 POP PUSH1 0x20 DUP9 ADD CALLDATALOAD SWAP8 PUSH1 0x40 DUP2 ADD CALLDATALOAD SWAP8 POP PUSH1 0x60 ADD CALLDATALOAD SWAP6 POP SWAP4 POP POP POP POP JUMP JUMPDEST PUSH0 DUP2 MLOAD DUP1 DUP5 MSTORE DUP1 PUSH1 0x20 DUP5 ADD PUSH1 0x20 DUP7 ADD MCOPY PUSH0 PUSH1 0x20 DUP3 DUP7 ADD ADD MSTORE PUSH1 0x20 PUSH1 0x1F NOT PUSH1 0x1F DUP4 ADD AND DUP6 ADD ADD SWAP2 POP POP SWAP3 SWAP2 POP POP JUMP JUMPDEST PUSH1 0xE0 DUP2 MSTORE PUSH0 PUSH2 0xA45 PUSH1 0xE0 DUP4 ADD DUP11 PUSH2 0xA05 JUMP JUMPDEST DUP3 DUP2 SUB PUSH1 0x20 DUP5 ADD MSTORE DUP1 DUP10 MLOAD DUP1 DUP4 MSTORE PUSH1 0x20 DUP4 ADD SWAP2 POP PUSH1 0x20 DUP2 PUSH1 0x5 SHL DUP5 ADD ADD PUSH1 0x20 DUP13 ADD PUSH0 JUMPDEST DUP4 DUP2 LT ISZERO PUSH2 0xA9A JUMPI PUSH1 0x1F NOT DUP7 DUP5 SUB ADD DUP6 MSTORE PUSH2 0xA84 DUP4 DUP4 MLOAD PUSH2 0xA05 JUMP JUMPDEST PUSH1 0x20 SWAP6 DUP7 ADD SWAP6 SWAP1 SWAP4 POP SWAP2 SWAP1 SWAP2 ADD SWAP1 PUSH1 0x1 ADD PUSH2 0xA68 JUMP JUMPDEST POP POP DUP6 DUP2 SUB PUSH1 0x40 DUP8 ADD MSTORE PUSH2 0xAAE DUP2 DUP13 PUSH2 0xA05 JUMP JUMPDEST SWAP5 POP POP POP POP POP DUP6 PUSH1 0x60 DUP4 ADD MSTORE DUP5 PUSH1 0x80 DUP4 ADD MSTORE DUP4 PUSH1 0xA0 DUP4 ADD MSTORE DUP3 PUSH1 0xC0 DUP4 ADD MSTORE SWAP9 SWAP8 POP POP POP POP POP POP POP POP JUMP JUMPDEST PUSH0 PUSH1 0x20 DUP3 DUP5 SUB SLT ISZERO PUSH2 0xAE8 JUMPI PUSH0 DUP1 REVERT JUMPDEST POP CALLDATALOAD SWAP2 SWAP1 POP JUMP JUMPDEST PUSH0 DUP1 PUSH0 DUP1 PUSH0 DUP1 PUSH0 DUP1 PUSH0 PUSH1 0xA0 DUP11 DUP13 SUB SLT ISZERO PUSH2 0xB07 JUMPI PUSH0 DUP1 REVERT JUMPDEST DUP10 CALLDATALOAD PUSH1 0x1 PUSH1 0x1 PUSH1 0x40 SHL SUB DUP2 GT ISZERO PUSH2 0xB1C JUMPI PUSH0 DUP1 REVERT JUMPDEST PUSH2 0xB28 DUP13 DUP3 DUP14 ADD PUSH2 0x926 JUMP JUMPDEST SWAP1 SWAP11 POP SWAP9 POP POP PUSH1 0x20 DUP11 ADD CALLDATALOAD SWAP7 POP PUSH1 0x40 DUP11 ADD CALLDATALOAD PUSH1 0x1 PUSH1 0x1 PUSH1 0x40 SHL SUB DUP2 GT ISZERO PUSH2 0xB4D JUMPI PUSH0 DUP1 REVERT JUMPDEST PUSH2 0xB59 DUP13 DUP3 DUP14 ADD PUSH2 0x926 JUMP JUMPDEST SWAP1 SWAP8 POP SWAP6 POP POP PUSH1 0x60 DUP11 ADD CALLDATALOAD PUSH1 0x1 PUSH1 0x1 PUSH1 0x40 SHL SUB DUP2 GT ISZERO PUSH2 0xB77 JUMPI PUSH0 DUP1 REVERT JUMPDEST DUP11 ADD PUSH1 0x1F DUP2 ADD DUP13 SGT PUSH2 0xB87 JUMPI PUSH0 DUP1 REVERT JUMPDEST DUP1 CALLDATALOAD PUSH1 0x1 PUSH1 0x1 PUSH1 0x40 SHL SUB DUP2 GT ISZERO PUSH2 0xB9C JUMPI PUSH0 DUP1 REVERT JUMPDEST DUP13 PUSH1 0x20 DUP3 PUSH1 0x5 SHL DUP5 ADD ADD GT ISZERO PUSH2 0xBB0 JUMPI PUSH0 DUP1 REVERT JUMPDEST PUSH1 0x20 SWAP2 SWAP1 SWAP2 ADD SWAP5 POP SWAP3 POP PUSH1 0x80 DUP11 ADD CALLDATALOAD PUSH1 0x1 PUSH1 0x1 PUSH1 0x40 SHL SUB DUP2 GT ISZERO PUSH2 0xBD2 JUMPI PUSH0 DUP1 REVERT JUMPDEST PUSH2 0xBDE DUP13 DUP3 DUP14 ADD PUSH2 0x926 JUMP JUMPDEST SWAP2 POP DUP1 SWAP4 POP POP DUP1 SWAP2 POP POP SWAP3 SWAP6 SWAP9 POP SWAP3 SWAP6 SWAP9 POP SWAP3 SWAP6 SWAP9 JUMP JUMPDEST PUSH0 PUSH1 0x20 DUP3 DUP5 SUB SLT ISZERO PUSH2 0xC05 JUMPI PUSH0 DUP1 REVERT JUMPDEST DUP2 CALLDATALOAD PUSH1 0x1 PUSH1 0x1 PUSH1 0xA0 SHL SUB DUP2 AND DUP2 EQ PUSH2 0xC1B JUMPI PUSH0 DUP1 REVERT JUMPDEST SWAP4 SWAP3 POP POP POP JUMP JUMPDEST DUP2 DUP4 DUP3 CALLDATACOPY PUSH0 SWAP2 ADD SWAP1 DUP2 MSTORE SWAP2 SWAP1 POP JUMP JUMPDEST PUSH1 0x1 DUP2 DUP2 SHR SWAP1 DUP3 AND DUP1 PUSH2 0xC45 JUMPI PUSH1 0x7F DUP3 AND SWAP2 POP JUMPDEST PUSH1 0x20 DUP3 LT DUP2 SUB PUSH2 0xC63 JUMPI PUSH4 0x4E487B71 PUSH1 0xE0 SHL PUSH0 MSTORE PUSH1 0x22 PUSH1 0x4 MSTORE PUSH1 0x24 PUSH0 REVERT JUMPDEST POP SWAP2 SWAP1 POP JUMP JUMPDEST PUSH4 0x4E487B71 PUSH1 0xE0 SHL PUSH0 MSTORE PUSH1 0x41 PUSH1 0x4 MSTORE PUSH1 0x24 PUSH0 REVERT JUMPDEST PUSH1 0x40 MLOAD PUSH1 0x1F DUP3 ADD PUSH1 0x1F NOT AND DUP2 ADD PUSH1 0x1 PUSH1 0x1 PUSH1 0x40 SHL SUB DUP2 GT DUP3 DUP3 LT OR ISZERO PUSH2 0xCA5 JUMPI PUSH2 0xCA5 PUSH2 0xC69 JUMP JUMPDEST PUSH1 0x40 MSTORE SWAP2 SWAP1 POP JUMP JUMPDEST PUSH0 PUSH1 0x1 PUSH1 0x1 PUSH1 0x40 SHL SUB DUP4 GT ISZERO PUSH2 0xCC5 JUMPI PUSH2 0xCC5 PUSH2 0xC69 JUMP JUMPDEST DUP3 PUSH1 0x5 SHL PUSH2 0xCD5 PUSH1 0x20 DUP3 ADD PUSH2 0xC7D JUMP JUMPDEST DUP5 DUP2 MSTORE SWAP1 DUP4 ADD SWAP1 PUSH1 0x20 DUP2 ADD SWAP1 CALLDATASIZE DUP4 GT ISZERO PUSH2 0xCED JUMPI PUSH0 DUP1 REVERT JUMPDEST DUP5 JUMPDEST DUP4 DUP2 LT ISZERO PUSH2 0xD85 JUMPI DUP1 CALLDATALOAD PUSH1 0x1 PUSH1 0x1 PUSH1 0x40 SHL SUB DUP2 GT ISZERO PUSH2 0xD0C JUMPI PUSH0 DUP1 REVERT JUMPDEST DUP7 ADD CALLDATASIZE PUSH1 0x1F DUP3 ADD SLT PUSH2 0xD1C JUMPI PUSH0 DUP1 REVERT JUMPDEST DUP1 CALLDATALOAD PUSH1 0x1 PUSH1 0x1 PUSH1 0x40 SHL SUB DUP2 GT ISZERO PUSH2 0xD35 JUMPI PUSH2 0xD35 PUSH2 0xC69 JUMP JUMPDEST PUSH2 0xD48 PUSH1 0x1F DUP3 ADD PUSH1 0x1F NOT AND PUSH1 0x20 ADD PUSH2 0xC7D JUMP JUMPDEST DUP2 DUP2 MSTORE CALLDATASIZE PUSH1 0x20 DUP4 DUP6 ADD ADD GT ISZERO PUSH2 0xD5C JUMPI PUSH0 DUP1 REVERT JUMPDEST DUP2 PUSH1 0x20 DUP5 ADD PUSH1 0x20 DUP4 ADD CALLDATACOPY PUSH0 PUSH1 0x20 DUP4 DUP4 ADD ADD MSTORE DUP1 DUP7 MSTORE POP POP POP PUSH1 0x20 DUP4 ADD SWAP3 POP PUSH1 0x20 DUP2 ADD SWAP1 POP PUSH2 0xCEF JUMP JUMPDEST POP SWAP6 SWAP5 POP POP POP POP POP JUMP JUMPDEST PUSH1 0x1F DUP3 GT ISZERO PUSH2 0xDD6 JUMPI DUP1 PUSH0 MSTORE PUSH1 0x20 PUSH0 KECCAK256 PUSH1 0x1F DUP5 ADD PUSH1 0x5 SHR DUP2 ADD PUSH1 0x20 DUP6 LT ISZERO PUSH2 0xDB4 JUMPI POP DUP1 JUMPDEST PUSH1 0x1F DUP5 ADD PUSH1 0x5 SHR DUP3 ADD SWAP2 POP JUMPDEST DUP2 DUP2 LT ISZERO PUSH2 0xDD3 JUMPI PUSH0 DUP2 SSTORE PUSH1 0x1 ADD PUSH2 0xDC0 JUMP JUMPDEST POP POP JUMPDEST POP POP POP JUMP JUMPDEST DUP2 MLOAD PUSH1 0x1 PUSH1 0x1 PUSH1 0x40 SHL SUB DUP2 GT ISZERO PUSH2 0xDF4 JUMPI PUSH2 0xDF4 PUSH2 0xC69 JUMP JUMPDEST PUSH2 0xE08 DUP2 PUSH2 0xE02 DUP5 SLOAD PUSH2 0xC31 JUMP JUMPDEST DUP5 PUSH2 0xD8F JUMP JUMPDEST PUSH1 0x20 PUSH1 0x1F DUP3 GT PUSH1 0x1 DUP2 EQ PUSH2 0xE3A JUMPI PUSH0 DUP4 ISZERO PUSH2 0xE23 JUMPI POP DUP5 DUP3 ADD MLOAD JUMPDEST PUSH0 NOT PUSH1 0x3 DUP6 SWAP1 SHL SHR NOT AND PUSH1 0x1 DUP5 SWAP1 SHL OR DUP5 SSTORE PUSH2 0xDD3 JUMP JUMPDEST PUSH0 DUP5 DUP2 MSTORE PUSH1 0x20 DUP2 KECCAK256 PUSH1 0x1F NOT DUP6 AND SWAP2 JUMPDEST DUP3 DUP2 LT ISZERO PUSH2 0xE69 JUMPI DUP8 DUP6 ADD MLOAD DUP3 SSTORE PUSH1 0x20 SWAP5 DUP6 ADD SWAP5 PUSH1 0x1 SWAP1 SWAP3 ADD SWAP2 ADD PUSH2 0xE49 JUMP JUMPDEST POP DUP5 DUP3 LT ISZERO PUSH2 0xE86 JUMPI DUP7 DUP5 ADD MLOAD PUSH0 NOT PUSH1 0x3 DUP8 SWAP1 SHL PUSH1 0xF8 AND SHR NOT AND DUP2 SSTORE JUMPDEST POP POP POP POP PUSH1 0x1 SWAP1 DUP2 SHL ADD SWAP1 SSTORE POP JUMP JUMPDEST DUP3 DUP5 DUP3 CALLDATACOPY SWAP1 SWAP2 ADD SWAP1 DUP2 MSTORE PUSH1 0x20 ADD SWAP2 SWAP1 POP JUMP INVALID LOG2 PUSH5 0x6970667358 0x22 SLT KECCAK256 TIMESTAMP LOG0 0xAF BLOBHASH 0xDF SUB SWAP16 PUSH25 0x70729ACF69D1AE54615C766EF888BB5EE24C6C4C1F093E6664 PUSH20 0x6F6C634300081A00330000000000000000000000 "},"methodIdentifiers":{"commitHand(string,uint256,bytes32,uint256)":"65288130","commitments(bytes32)":"839df945","getHandData(string,uint256)":"82c1b358","owner()":"8da5cb5b","renounceOwnership()":"715018a6","revealHand(string,uint256,string,string[],string)":"d2222765","transferOwnership(address)":"f2fde38b","verifyHand(string,uint256)":"02326657"}}}}}