{
  "_format": "hh-sol-artifact-1",
  "contractName": "VRFV2PlusClient",
  "sourceName": "@chainlink/contracts/src/v0.8/vrf/dev/libraries/VRFV2PlusClient.sol",
  "abi": [
    {
      "inputs": [],
      "name": "EXTRA_ARGS_V1_TAG",
      "outputs": [
        {
          "internalType": "bytes4",
          "name": "",
          "type": "bytes4"
        }
      ],
      "stateMutability": "view",
      "type": "function"
    }
  ],
  "bytecode": "0x60af6032600b8282823980515f1a607314602657634e487b7160e01b5f525f60045260245ffd5b305f52607381538281f3fe73000000000000000000000000000000000000000030146080604052600436106032575f3560e01c8063f7514ab4146036575b5f80fd5b605c7f92fd13387c7fe7befbc38d303d6468778fb9731bc4583f17d92989c6fcfdeaaa81565b6040516001600160e01b0319909116815260200160405180910390f3fea264697066735822122016f07294b5bccf2aaae7dc536e2cc31340aeda27efea78c59aad2efa452e1c9b64736f6c634300081a0033",
  "linkReferences": {},
  "deployedLinkReferences": {}
}