{
  "_format": "hh-sol-artifact-1",
  "contractName": "PokerNFTMarketplace",
  "sourceName": "contracts/PokerNFTMarketplace.sol",
  "abi": [
    {
      "inputs": [],
      "stateMutability": "nonpayable",
      "type": "constructor"
    },
    {
      "inputs": [
        {
          "internalType": "address",
          "name": "sender",
          "type": "address"
        },
        {
          "internalType": "uint256",
          "name": "tokenId",
          "type": "uint256"
        },
        {
          "internalType": "address",
          "name": "owner",
          "type": "address"
        }
      ],
      "name": "ERC721IncorrectOwner",
      "type": "error"
    },
    {
      "inputs": [
        {
          "internalType": "address",
          "name": "operator",
          "type": "address"
        },
        {
          "internalType": "uint256",
          "name": "tokenId",
          "type": "uint256"
        }
      ],
      "name": "ERC721InsufficientApproval",
      "type": "error"
    },
    {
      "inputs": [
        {
          "internalType": "address",
          "name": "approver",
          "type": "address"
        }
      ],
      "name": "ERC721InvalidApprover",
      "type": "error"
    },
    {
      "inputs": [
        {
          "internalType": "address",
          "name": "operator",
          "type": "address"
        }
      ],
      "name": "ERC721InvalidOperator",
      "type": "error"
    },
    {
      "inputs": [
        {
          "internalType": "address",
          "name": "owner",
          "type": "address"
        }
      ],
      "name": "ERC721InvalidOwner",
      "type": "error"
    },
    {
      "inputs": [
        {
          "internalType": "address",
          "name": "receiver",
          "type": "address"
        }
      ],
      "name": "ERC721InvalidReceiver",
      "type": "error"
    },
    {
      "inputs": [
        {
          "internalType": "address",
          "name": "sender",
          "type": "address"
        }
      ],
      "name": "ERC721InvalidSender",
      "type": "error"
    },
    {
      "inputs": [
        {
          "internalType": "uint256",
          "name": "tokenId",
          "type": "uint256"
        }
      ],
      "name": "ERC721NonexistentToken",
      "type": "error"
    },
    {
      "inputs": [
        {
          "internalType": "address",
          "name": "owner",
          "type": "address"
        }
      ],
      "name": "OwnableInvalidOwner",
      "type": "error"
    },
    {
      "inputs": [
        {
          "internalType": "address",
          "name": "account",
          "type": "address"
        }
      ],
      "name": "OwnableUnauthorizedAccount",
      "type": "error"
    },
    {
      "anonymous": false,
      "inputs": [
        {
          "indexed": true,
          "internalType": "address",
          "name": "owner",
          "type": "address"
        },
        {
          "indexed": true,
          "internalType": "address",
          "name": "approved",
          "type": "address"
        },
        {
          "indexed": true,
          "internalType": "uint256",
          "name": "tokenId",
          "type": "uint256"
        }
      ],
      "name": "Approval",
      "type": "event"
    },
    {
      "anonymous": false,
      "inputs": [
        {
          "indexed": true,
          "internalType": "address",
          "name": "owner",
          "type": "address"
        },
        {
          "indexed": true,
          "internalType": "address",
          "name": "operator",
          "type": "address"
        },
        {
          "indexed": false,
          "internalType": "bool",
          "name": "approved",
          "type": "bool"
        }
      ],
      "name": "ApprovalForAll",
      "type": "event"
    },
    {
      "anonymous": false,
      "inputs": [
        {
          "indexed": true,
          "internalType": "uint256",
          "name": "tokenId",
          "type": "uint256"
        },
        {
          "indexed": true,
          "internalType": "address",
          "name": "to",
          "type": "address"
        },
        {
          "indexed": false,
          "internalType": "string",
          "name": "tokenURI",
          "type": "string"
        }
      ],
      "name": "AvatarMinted",
      "type": "event"
    },
    {
      "anonymous": false,
      "inputs": [
        {
          "indexed": false,
          "internalType": "uint256",
          "name": "_fromTokenId",
          "type": "uint256"
        },
        {
          "indexed": false,
          "internalType": "uint256",
          "name": "_toTokenId",
          "type": "uint256"
        }
      ],
      "name": "BatchMetadataUpdate",
      "type": "event"
    },
    {
      "anonymous": false,
      "inputs": [
        {
          "indexed": true,
          "internalType": "uint256",
          "name": "tokenId",
          "type": "uint256"
        }
      ],
      "name": "Delisted",
      "type": "event"
    },
    {
      "anonymous": false,
      "inputs": [
        {
          "indexed": true,
          "internalType": "uint256",
          "name": "tokenId",
          "type": "uint256"
        },
        {
          "indexed": true,
          "internalType": "address",
          "name": "seller",
          "type": "address"
        },
        {
          "indexed": false,
          "internalType": "uint256",
          "name": "price",
          "type": "uint256"
        }
      ],
      "name": "Listed",
      "type": "event"
    },
    {
      "anonymous": false,
      "inputs": [
        {
          "indexed": false,
          "internalType": "uint256",
          "name": "_tokenId",
          "type": "uint256"
        }
      ],
      "name": "MetadataUpdate",
      "type": "event"
    },
    {
      "anonymous": false,
      "inputs": [
        {
          "indexed": true,
          "internalType": "address",
          "name": "previousOwner",
          "type": "address"
        },
        {
          "indexed": true,
          "internalType": "address",
          "name": "newOwner",
          "type": "address"
        }
      ],
      "name": "OwnershipTransferred",
      "type": "event"
    },
    {
      "anonymous": false,
      "inputs": [
        {
          "indexed": true,
          "internalType": "uint256",
          "name": "tokenId",
          "type": "uint256"
        },
        {
          "indexed": true,
          "internalType": "address",
          "name": "buyer",
          "type": "address"
        },
        {
          "indexed": true,
          "internalType": "address",
          "name": "seller",
          "type": "address"
        },
        {
          "indexed": false,
          "internalType": "uint256",
          "name": "price",
          "type": "uint256"
        },
        {
          "indexed": false,
          "internalType": "uint256",
          "name": "fee",
          "type": "uint256"
        }
      ],
      "name": "Sold",
      "type": "event"
    },
    {
      "anonymous": false,
      "inputs": [
        {
          "indexed": true,
          "internalType": "address",
          "name": "from",
          "type": "address"
        },
        {
          "indexed": true,
          "internalType": "address",
          "name": "to",
          "type": "address"
        },
        {
          "indexed": true,
          "internalType": "uint256",
          "name": "tokenId",
          "type": "uint256"
        }
      ],
      "name": "Transfer",
      "type": "event"
    },
    {
      "inputs": [
        {
          "internalType": "address",
          "name": "to",
          "type": "address"
        },
        {
          "internalType": "uint256",
          "name": "tokenId",
          "type": "uint256"
        }
      ],
      "name": "approve",
      "outputs": [],
      "stateMutability": "nonpayable",
      "type": "function"
    },
    {
      "inputs": [
        {
          "internalType": "address",
          "name": "owner",
          "type": "address"
        }
      ],
      "name": "balanceOf",
      "outputs": [
        {
          "internalType": "uint256",
          "name": "",
          "type": "uint256"
        }
      ],
      "stateMutability": "view",
      "type": "function"
    },
    {
      "inputs": [
        {
          "internalType": "uint256",
          "name": "tokenId",
          "type": "uint256"
        },
        {
          "internalType": "uint256",
          "name": "feeBps",
          "type": "uint256"
        }
      ],
      "name": "buyNFT",
      "outputs": [],
      "stateMutability": "payable",
      "type": "function"
    },
    {
      "inputs": [
        {
          "internalType": "uint256",
          "name": "tokenId",
          "type": "uint256"
        }
      ],
      "name": "cancelListing",
      "outputs": [],
      "stateMutability": "nonpayable",
      "type": "function"
    },
    {
      "inputs": [],
      "name": "collectedFees",
      "outputs": [
        {
          "internalType": "uint256",
          "name": "",
          "type": "uint256"
        }
      ],
      "stateMutability": "view",
      "type": "function"
    },
    {
      "inputs": [],
      "name": "defaultFeeBps",
      "outputs": [
        {
          "internalType": "uint256",
          "name": "",
          "type": "uint256"
        }
      ],
      "stateMutability": "view",
      "type": "function"
    },
    {
      "inputs": [
        {
          "internalType": "uint256",
          "name": "tokenId",
          "type": "uint256"
        }
      ],
      "name": "getApproved",
      "outputs": [
        {
          "internalType": "address",
          "name": "",
          "type": "address"
        }
      ],
      "stateMutability": "view",
      "type": "function"
    },
    {
      "inputs": [
        {
          "internalType": "address",
          "name": "owner",
          "type": "address"
        },
        {
          "internalType": "address",
          "name": "operator",
          "type": "address"
        }
      ],
      "name": "isApprovedForAll",
      "outputs": [
        {
          "internalType": "bool",
          "name": "",
          "type": "bool"
        }
      ],
      "stateMutability": "view",
      "type": "function"
    },
    {
      "inputs": [
        {
          "internalType": "uint256",
          "name": "tokenId",
          "type": "uint256"
        },
        {
          "internalType": "uint256",
          "name": "price",
          "type": "uint256"
        }
      ],
      "name": "listForSale",
      "outputs": [],
      "stateMutability": "nonpayable",
      "type": "function"
    },
    {
      "inputs": [
        {
          "internalType": "uint256",
          "name": "",
          "type": "uint256"
        }
      ],
      "name": "listings",
      "outputs": [
        {
          "internalType": "address",
          "name": "seller",
          "type": "address"
        },
        {
          "internalType": "uint256",
          "name": "price",
          "type": "uint256"
        },
        {
          "internalType": "bool",
          "name": "active",
          "type": "bool"
        }
      ],
      "stateMutability": "view",
      "type": "function"
    },
    {
      "inputs": [
        {
          "internalType": "address",
          "name": "to",
          "type": "address"
        },
        {
          "internalType": "string",
          "name": "uri",
          "type": "string"
        }
      ],
      "name": "mintAvatar",
      "outputs": [
        {
          "internalType": "uint256",
          "name": "",
          "type": "uint256"
        }
      ],
      "stateMutability": "nonpayable",
      "type": "function"
    },
    {
      "inputs": [],
      "name": "name",
      "outputs": [
        {
          "internalType": "string",
          "name": "",
          "type": "string"
        }
      ],
      "stateMutability": "view",
      "type": "function"
    },
    {
      "inputs": [],
      "name": "owner",
      "outputs": [
        {
          "internalType": "address",
          "name": "",
          "type": "address"
        }
      ],
      "stateMutability": "view",
      "type": "function"
    },
    {
      "inputs": [
        {
          "internalType": "uint256",
          "name": "tokenId",
          "type": "uint256"
        }
      ],
      "name": "ownerOf",
      "outputs": [
        {
          "internalType": "address",
          "name": "",
          "type": "address"
        }
      ],
      "stateMutability": "view",
      "type": "function"
    },
    {
      "inputs": [],
      "name": "renounceOwnership",
      "outputs": [],
      "stateMutability": "nonpayable",
      "type": "function"
    },
    {
      "inputs": [
        {
          "internalType": "address",
          "name": "from",
          "type": "address"
        },
        {
          "internalType": "address",
          "name": "to",
          "type": "address"
        },
        {
          "internalType": "uint256",
          "name": "tokenId",
          "type": "uint256"
        }
      ],
      "name": "safeTransferFrom",
      "outputs": [],
      "stateMutability": "nonpayable",
      "type": "function"
    },
    {
      "inputs": [
        {
          "internalType": "address",
          "name": "from",
          "type": "address"
        },
        {
          "internalType": "address",
          "name": "to",
          "type": "address"
        },
        {
          "internalType": "uint256",
          "name": "tokenId",
          "type": "uint256"
        },
        {
          "internalType": "bytes",
          "name": "data",
          "type": "bytes"
        }
      ],
      "name": "safeTransferFrom",
      "outputs": [],
      "stateMutability": "nonpayable",
      "type": "function"
    },
    {
      "inputs": [
        {
          "internalType": "address",
          "name": "operator",
          "type": "address"
        },
        {
          "internalType": "bool",
          "name": "approved",
          "type": "bool"
        }
      ],
      "name": "setApprovalForAll",
      "outputs": [],
      "stateMutability": "nonpayable",
      "type": "function"
    },
    {
      "inputs": [
        {
          "internalType": "uint256",
          "name": "newFeeBps",
          "type": "uint256"
        }
      ],
      "name": "setDefaultFeeBps",
      "outputs": [],
      "stateMutability": "nonpayable",
      "type": "function"
    },
    {
      "inputs": [
        {
          "internalType": "bytes4",
          "name": "interfaceId",
          "type": "bytes4"
        }
      ],
      "name": "supportsInterface",
      "outputs": [
        {
          "internalType": "bool",
          "name": "",
          "type": "bool"
        }
      ],
      "stateMutability": "view",
      "type": "function"
    },
    {
      "inputs": [],
      "name": "symbol",
      "outputs": [
        {
          "internalType": "string",
          "name": "",
          "type": "string"
        }
      ],
      "stateMutability": "view",
      "type": "function"
    },
    {
      "inputs": [
        {
          "internalType": "uint256",
          "name": "tokenId",
          "type": "uint256"
        }
      ],
      "name": "tokenURI",
      "outputs": [
        {
          "internalType": "string",
          "name": "",
          "type": "string"
        }
      ],
      "stateMutability": "view",
      "type": "function"
    },
    {
      "inputs": [
        {
          "internalType": "address",
          "name": "from",
          "type": "address"
        },
        {
          "internalType": "address",
          "name": "to",
          "type": "address"
        },
        {
          "internalType": "uint256",
          "name": "tokenId",
          "type": "uint256"
        }
      ],
      "name": "transferFrom",
      "outputs": [],
      "stateMutability": "nonpayable",
      "type": "function"
    },
    {
      "inputs": [
        {
          "internalType": "address",
          "name": "newOwner",
          "type": "address"
        }
      ],
      "name": "transferOwnership",
      "outputs": [],
      "stateMutability": "nonpayable",
      "type": "function"
    },
    {
      "inputs": [],
      "name": "withdrawFees",
      "outputs": [],
      "stateMutability": "nonpayable",
      "type": "function"
    }
  ],
  "bytecode": "0x6080604052610122600955348015610015575f80fd5b50336040518060400160405280600b81526020016a2837b5b2b920bb30ba30b960a91b815250604051806040016040528060048152602001632825a0a960e11b815250815f9081610066919061019b565b506001610073828261019b565b5050506001600160a01b0381166100a357604051631e4fbdf760e01b81525f600482015260240160405180910390fd5b6100ac816100b2565b50610255565b600780546001600160a01b038381166001600160a01b0319831681179093556040519116919082907f8be0079c531659141344cd1fd0a4f28419497f9722a3daafe3b4186f6b6457e0905f90a35050565b634e487b7160e01b5f52604160045260245ffd5b600181811c9082168061012b57607f821691505b60208210810361014957634e487b7160e01b5f52602260045260245ffd5b50919050565b601f82111561019657805f5260205f20601f840160051c810160208510156101745750805b601f840160051c820191505b81811015610193575f8155600101610180565b50505b505050565b81516001600160401b038111156101b4576101b4610103565b6101c8816101c28454610117565b8461014f565b6020601f8211600181146101fa575f83156101e35750848201515b5f19600385901b1c1916600184901b178455610193565b5f84815260208120601f198516915b828110156102295787850151825560209485019460019092019101610209565b508482101561024657868401515f19600387901b60f8161c191681555b50505050600190811b01905550565b611d77806102625f395ff3fe608060405260043610610161575f3560e01c8063715018a6116100cd578063b88d4fde11610087578063de74e57b11610062578063de74e57b146103ec578063e80d7fec1461045a578063e985e9c514610479578063f2fde38b14610498575f80fd5b8063b88d4fde14610399578063bcae25a4146103b8578063c87b56dd146103cd575f80fd5b8063715018a6146103015780638da5cb5b146103155780639003adfe1461033257806395d89b4114610347578063972220831461035b578063a22cb4651461037a575f80fd5b8063305a67a81161011e578063305a67a81461024457806342842e0e146102635780634373a28614610282578063476343ee146102a15780636352211e146102b557806370a08231146102d4575f80fd5b806301ffc9a71461016557806306fdde0314610199578063081812fc146101ba578063095ea7b3146101f15780631d85bf031461021257806323b872dd14610225575b5f80fd5b348015610170575f80fd5b5061018461017f3660046117d1565b6104b7565b60405190151581526020015b60405180910390f35b3480156101a4575f80fd5b506101ad6104c7565b604051610190919061181a565b3480156101c5575f80fd5b506101d96101d436600461182c565b610556565b6040516001600160a01b039091168152602001610190565b3480156101fc575f80fd5b5061021061020b36600461185e565b61057d565b005b610210610220366004611886565b61058c565b348015610230575f80fd5b5061021061023f3660046118a6565b6107b6565b34801561024f575f80fd5b5061021061025e36600461182c565b61083f565b34801561026e575f80fd5b5061021061027d3660046118a6565b61091c565b34801561028d575f80fd5b5061021061029c36600461182c565b61093b565b3480156102ac575f80fd5b50610210610989565b3480156102c0575f80fd5b506101d96102cf36600461182c565b610a13565b3480156102df575f80fd5b506102f36102ee3660046118e0565b610a1d565b604051908152602001610190565b34801561030c575f80fd5b50610210610a62565b348015610320575f80fd5b506007546001600160a01b03166101d9565b34801561033d575f80fd5b506102f3600b5481565b348015610352575f80fd5b506101ad610a75565b348015610366575f80fd5b506102f36103753660046118f9565b610a84565b348015610385575f80fd5b50610210610394366004611977565b610b38565b3480156103a4575f80fd5b506102106103b33660046119c4565b610b43565b3480156103c3575f80fd5b506102f360095481565b3480156103d8575f80fd5b506101ad6103e736600461182c565b610b5b565b3480156103f7575f80fd5b5061043361040636600461182c565b600a6020525f90815260409020805460018201546002909201546001600160a01b03909116919060ff1683565b604080516001600160a01b0390941684526020840192909252151590820152606001610190565b348015610465575f80fd5b50610210610474366004611886565b610b66565b348015610484575f80fd5b50610184610493366004611aa1565b610ced565b3480156104a3575f80fd5b506102106104b23660046118e0565b610d1a565b5f6104c182610d57565b92915050565b60605f80546104d590611ad2565b80601f016020809104026020016040519081016040528092919081815260200182805461050190611ad2565b801561054c5780601f106105235761010080835404028352916020019161054c565b820191905f5260205f20905b81548152906001019060200180831161052f57829003601f168201915b5050505050905090565b5f61056082610d7b565b505f828152600460205260409020546001600160a01b03166104c1565b610588828233610db3565b5050565b5f828152600a60205260409020600281015460ff166105df5760405162461bcd60e51b815260206004820152600a602482015269139bdd081b1a5cdd195960b21b60448201526064015b60405180910390fd5b806001015434101561062a5760405162461bcd60e51b8152602060048201526014602482015273125b9cdd59999a58da595b9d081c185e5b595b9d60621b60448201526064016105d6565b80546001600160a01b0316330361067c5760405162461bcd60e51b815260206004820152601660248201527543616e6e6f7420627579206f776e206c697374696e6760501b60448201526064016105d6565b5f6127108383600101546106909190611b1e565b61069a9190611b35565b90505f8183600101546106ad9190611b54565b60028401805460ff19169055600b805491925083915f906106cf908490611b67565b909155506106e09050303387610dc0565b82546040516001600160a01b039091169082156108fc029083905f818181858888f19350505050158015610716573d5f803e3d5ffd5b50826001015434111561075f57600183015433906108fc906107389034611b54565b6040518115909202915f818181858888f1935050505015801561075d573d5f803e3d5ffd5b505b8254600184015460408051918252602082018590526001600160a01b0390921691339188917fa70b1a854695e7921b122988e216d3a6cd10ed799017c67b1ff231967e6bf56d910160405180910390a45050505050565b6001600160a01b0382166107df57604051633250574960e11b81525f60048201526024016105d6565b5f6107eb838333610e6d565b9050836001600160a01b0316816001600160a01b031614610839576040516364283d7b60e01b81526001600160a01b03808616600483015260248201849052821660448201526064016105d6565b50505050565b5f818152600a60205260409020600281015460ff1661088d5760405162461bcd60e51b815260206004820152600a602482015269139bdd081b1a5cdd195960b21b60448201526064016105d6565b80546001600160a01b031633146108d75760405162461bcd60e51b815260206004820152600e60248201526d2737ba103a34329039b2b63632b960911b60448201526064016105d6565b60028101805460ff191690556108ee303384610dc0565b60405182907fc40fdc946efe80191c467f60727c4abc08254a056035d467a4516a86005ab763905f90a25050565b61093683838360405180602001604052805f815250610b43565b505050565b610943610f5f565b6103e88111156109845760405162461bcd60e51b815260206004820152600c60248201526b08ccaca40e8dede40d0d2ced60a31b60448201526064016105d6565b600955565b610991610f5f565b600b54806109d75760405162461bcd60e51b81526020600482015260136024820152724e6f206665657320746f20776974686472617760681b60448201526064016105d6565b5f600b8190556007546040516001600160a01b039091169183156108fc02918491818181858888f19350505050158015610588573d5f803e3d5ffd5b5f6104c182610d7b565b5f6001600160a01b038216610a47576040516322718ad960e21b81525f60048201526024016105d6565b506001600160a01b03165f9081526003602052604090205490565b610a6a610f5f565b610a735f610f8c565b565b6060600180546104d590611ad2565b5f610a8d610f5f565b600880545f9182610a9d83611b7a565b919050559050610aad8582610fdd565b610aec8185858080601f0160208091040260200160405190810160405280939291908181526020018383808284375f92019190915250610ff692505050565b846001600160a01b0316817f79b4245834cd8753a20503b6c90974f498cc9f54d434ea0e8a6ff8fc77aa1e908686604051610b28929190611b92565b60405180910390a3949350505050565b610588338383611045565b610b4e8484846107b6565b610839338585858561110c565b60606104c182611234565b33610b7083610a13565b6001600160a01b031614610bb65760405162461bcd60e51b815260206004820152600d60248201526c2737ba103a34329037bbb732b960991b60448201526064016105d6565b5f8111610bf95760405162461bcd60e51b815260206004820152601160248201527005072696365206d757374206265203e203607c1b60448201526064016105d6565b5f828152600a602052604090206002015460ff1615610c4b5760405162461bcd60e51b815260206004820152600e60248201526d105b1c9958591e481b1a5cdd195960921b60448201526064016105d6565b610c563330846107b6565b6040805160608101825233808252602080830185815260018486018181525f898152600a8552879020955186546001600160a01b0319166001600160a01b03909116178655915190850155516002909301805460ff191693151593909317909255915183815284917f50955776c5778c3b7d968d86d8c51fb6b29a7a74c20866b533268e209fc08343910160405180910390a35050565b6001600160a01b039182165f90815260056020908152604080832093909416825291909152205460ff1690565b610d22610f5f565b6001600160a01b038116610d4b57604051631e4fbdf760e01b81525f60048201526024016105d6565b610d5481610f8c565b50565b5f6001600160e01b03198216632483248360e11b14806104c157506104c1826112b5565b5f818152600260205260408120546001600160a01b0316806104c157604051637e27328960e01b8152600481018490526024016105d6565b6109368383836001611304565b6001600160a01b038216610de957604051633250574960e11b81525f60048201526024016105d6565b5f610df583835f610e6d565b90506001600160a01b038116610e2157604051637e27328960e01b8152600481018390526024016105d6565b836001600160a01b0316816001600160a01b031614610839576040516364283d7b60e01b81526001600160a01b03808616600483015260248201849052821660448201526064016105d6565b5f828152600260205260408120546001600160a01b0390811690831615610e9957610e99818486611408565b6001600160a01b03811615610ed357610eb45f855f80611304565b6001600160a01b0381165f90815260036020526040902080545f190190555b6001600160a01b03851615610f01576001600160a01b0385165f908152600360205260409020805460010190555b5f8481526002602052604080822080546001600160a01b0319166001600160a01b0389811691821790925591518793918516917fddf252ad1be2c89b69c2b068fc378daa952ba7f163c4a11628f55a4df523b3ef91a4949350505050565b6007546001600160a01b03163314610a735760405163118cdaa760e01b81523360048201526024016105d6565b600780546001600160a01b038381166001600160a01b0319831681179093556040519116919082907f8be0079c531659141344cd1fd0a4f28419497f9722a3daafe3b4186f6b6457e0905f90a35050565b610588828260405180602001604052805f81525061146c565b5f82815260066020526040902061100d8282611c04565b506040518281527ff8e1a15aba9398e019f0b49df1a4fde98ee17ae345cb5f6b5e2c27f5033e8ce79060200160405180910390a15050565b6001600160a01b03831661106e5760405163a9fbf51f60e01b81525f60048201526024016105d6565b6001600160a01b0382166110a057604051630b61174360e31b81526001600160a01b03831660048201526024016105d6565b6001600160a01b038381165f81815260056020908152604080832094871680845294825291829020805460ff191686151590811790915591519182527f17307eab39ab6107e8899845ad3d59bd9653f200f220920489ca2b5937696c31910160405180910390a3505050565b6001600160a01b0383163b1561122d57604051630a85bd0160e11b81526001600160a01b0384169063150b7a029061114e908890889087908790600401611cbf565b6020604051808303815f875af1925050508015611188575060408051601f3d908101601f1916820190925261118591810190611cfb565b60015b6111ef573d8080156111b5576040519150601f19603f3d011682016040523d82523d5f602084013e6111ba565b606091505b5080515f036111e757604051633250574960e11b81526001600160a01b03851660048201526024016105d6565b805160208201fd5b6001600160e01b03198116630a85bd0160e11b1461122b57604051633250574960e11b81526001600160a01b03851660048201526024016105d6565b505b5050505050565b606061123f82610d7b565b505f61125560408051602081019091525f815290565b90505f61126184611483565b905081515f03611272579392505050565b8051156112a457818160405160200161128c929190611d2d565b60405160208183030381529060405292505050919050565b6112ad84611522565b949350505050565b5f6001600160e01b031982166380ac58cd60e01b14806112e557506001600160e01b03198216635b5e139f60e01b145b806104c157506301ffc9a760e01b6001600160e01b03198316146104c1565b808061131857506001600160a01b03821615155b156113d9575f61132784610d7b565b90506001600160a01b038316158015906113535750826001600160a01b0316816001600160a01b031614155b801561136657506113648184610ced565b155b1561138f5760405163a9fbf51f60e01b81526001600160a01b03841660048201526024016105d6565b81156113d75783856001600160a01b0316826001600160a01b03167f8c5be1e5ebec7d5bd14f71427d1e84f3dd0314c0f7b2291e5b200ac8c7c3b92560405160405180910390a45b505b50505f90815260046020526040902080546001600160a01b0319166001600160a01b0392909216919091179055565b611413838383611593565b610936576001600160a01b03831661144157604051637e27328960e01b8152600481018290526024016105d6565b60405163177e802f60e01b81526001600160a01b0383166004820152602481018290526044016105d6565b61147683836115f4565b610936335f85858561110c565b5f81815260066020526040902080546060919061149f90611ad2565b80601f01602080910402602001604051908101604052809291908181526020018280546114cb90611ad2565b80156115165780601f106114ed57610100808354040283529160200191611516565b820191905f5260205f20905b8154815290600101906020018083116114f957829003601f168201915b50505050509050919050565b606061152d82610d7b565b505f61154360408051602081019091525f815290565b90505f8151116115615760405180602001604052805f81525061158c565b8061156b84611655565b60405160200161157c929190611d2d565b6040516020818303038152906040525b9392505050565b5f6001600160a01b038316158015906112ad5750826001600160a01b0316846001600160a01b031614806115cc57506115cc8484610ced565b806112ad5750505f908152600460205260409020546001600160a01b03908116911614919050565b6001600160a01b03821661161d57604051633250574960e11b81525f60048201526024016105d6565b5f61162983835f610e6d565b90506001600160a01b03811615610936576040516339e3563760e11b81525f60048201526024016105d6565b60605f611661836116e5565b60010190505f8167ffffffffffffffff811115611680576116806119b0565b6040519080825280601f01601f1916602001820160405280156116aa576020820181803683370190505b5090508181016020015b5f19016f181899199a1a9b1b9c1cb0b131b232b360811b600a86061a8153600a85049450846116b457509392505050565b5f8072184f03e93ff9f4daa797ed6e38ed64bf6a1f0160401b83106117235772184f03e93ff9f4daa797ed6e38ed64bf6a1f0160401b830492506040015b6d04ee2d6d415b85acef8100000000831061174f576d04ee2d6d415b85acef8100000000830492506020015b662386f26fc10000831061176d57662386f26fc10000830492506010015b6305f5e1008310611785576305f5e100830492506008015b612710831061179957612710830492506004015b606483106117ab576064830492506002015b600a83106104c15760010192915050565b6001600160e01b031981168114610d54575f80fd5b5f602082840312156117e1575f80fd5b813561158c816117bc565b5f81518084528060208401602086015e5f602082860101526020601f19601f83011685010191505092915050565b602081525f61158c60208301846117ec565b5f6020828403121561183c575f80fd5b5035919050565b80356001600160a01b0381168114611859575f80fd5b919050565b5f806040838503121561186f575f80fd5b61187883611843565b946020939093013593505050565b5f8060408385031215611897575f80fd5b50508035926020909101359150565b5f805f606084860312156118b8575f80fd5b6118c184611843565b92506118cf60208501611843565b929592945050506040919091013590565b5f602082840312156118f0575f80fd5b61158c82611843565b5f805f6040848603121561190b575f80fd5b61191484611843565b9250602084013567ffffffffffffffff81111561192f575f80fd5b8401601f8101861361193f575f80fd5b803567ffffffffffffffff811115611955575f80fd5b866020828401011115611966575f80fd5b939660209190910195509293505050565b5f8060408385031215611988575f80fd5b61199183611843565b9150602083013580151581146119a5575f80fd5b809150509250929050565b634e487b7160e01b5f52604160045260245ffd5b5f805f80608085870312156119d7575f80fd5b6119e085611843565b93506119ee60208601611843565b925060408501359150606085013567ffffffffffffffff811115611a10575f80fd5b8501601f81018713611a20575f80fd5b803567ffffffffffffffff811115611a3a57611a3a6119b0565b604051601f8201601f19908116603f0116810167ffffffffffffffff81118282101715611a6957611a696119b0565b604052818152828201602001891015611a80575f80fd5b816020840160208301375f6020838301015280935050505092959194509250565b5f8060408385031215611ab2575f80fd5b611abb83611843565b9150611ac960208401611843565b90509250929050565b600181811c90821680611ae657607f821691505b602082108103611b0457634e487b7160e01b5f52602260045260245ffd5b50919050565b634e487b7160e01b5f52601160045260245ffd5b80820281158282048414176104c1576104c1611b0a565b5f82611b4f57634e487b7160e01b5f52601260045260245ffd5b500490565b818103818111156104c1576104c1611b0a565b808201808211156104c1576104c1611b0a565b5f60018201611b8b57611b8b611b0a565b5060010190565b60208152816020820152818360408301375f818301604090810191909152601f909201601f19160101919050565b601f82111561093657805f5260205f20601f840160051c81016020851015611be55750805b601f840160051c820191505b8181101561122d575f8155600101611bf1565b815167ffffffffffffffff811115611c1e57611c1e6119b0565b611c3281611c2c8454611ad2565b84611bc0565b6020601f821160018114611c64575f8315611c4d5750848201515b5f19600385901b1c1916600184901b17845561122d565b5f84815260208120601f198516915b82811015611c935787850151825560209485019460019092019101611c73565b5084821015611cb057868401515f19600387901b60f8161c191681555b50505050600190811b01905550565b6001600160a01b03858116825284166020820152604081018390526080606082018190525f90611cf1908301846117ec565b9695505050505050565b5f60208284031215611d0b575f80fd5b815161158c816117bc565b5f81518060208401855e5f93019283525090919050565b5f6112ad611d3b8386611d16565b84611d1656fea2646970667358221220d40cf02ec16b65c42aa51962968ab6912d547ff5a3a0c900f8eeb0e5a0359b9e64736f6c634300081a0033",
  "linkReferences": {},
  "deployedLinkReferences": {}
}